:020000040020DA
:20200000886C00207524200077A4200075A4200075A4200075A4200075A4200000000000D4
:2020200000000000000000000000000075A4200075A420000000000075A4200013A520001D
:2020400025A520002BA5200031A5200037A520000000000019A520001FA5200075A42000B9
:2020600075A42000000000000000000000000000000000000000000075A4200000000000EE
:20208000000000000000000075A4200075A4200075A4200075A4200075A4200075A42000EA
:2020A00075A4200075A4200075A4200075A4200075A4200075A4200075A4200075A4200058
:2020C00075A4200075A4200075A4200075A4200075A42000000000000000000000000000E3
:2020E000000000000000000000000000000000000000000000000000E9392000F93920004C
:202100000000000000000000000000000000000000000000000000000000000000000000BF
:2021200000000000000000000000000000000000000000000000000000000000000000009F
:2021400000000000000000000000000000000000000000000000000000000000000000007F
:2021600000000000000000000000000000000000000000000000000000000000000000005F
:2021800000000000000000000000000000000000000000000000000000000000000000003F
:2021A00000000000000000000000000000000000000000000000000000000000000000001F
:2021C0000000000000000000000000000000000000000000000000000000000000000000FF
:2021E0000000000000000000000000000000000000000000000000000000000000000000DF
:202200000000000000000000000000000000000000000000000000000000000000000000BE
:2022200000000000000000000000000000000000000000000000000000000000000000009E
:2022400000000000000000000000000000000000000000000000000000000000000000007E
:202260000000000000000000000000000000000075A42000CD382000F1382000012D200069
:20228000DD3B2000D128200075A420000000000008B506F0CDFF04A3D3E9002307F042F87E
:2022A00007F052FA08BD00BF333333333333D33FF8B50646481E174606F0CAFF12A3D3E927
:2022C000002307F02FF80022114B06F075FE0022104B07F027F80446B81C0D4606F0B8FF25
:2022E00002460B462046294607F046F9044630460D4606F09DFF02460B462046294606F031
:202300005BFE07F021FAF8BD333333333333D33F0000F03F00409F4008B506F089FF04A329
:20232000D3E9002306F0FEFF07F00EFA08BD00BFAE47E17A14AEEF3FF7B50F2003F088F9B9
:202340004549044608F06BFB002842D0434C23880133238003F0ACF802884FF47A70012A83
:2023600008BF2280238858430023C11707F0A6FD0A22002306460F4607F0A0FD0A2204461F
:202380000D4600233046394607F098FDCDE900232246334C2B46334804F014F8E378B3B9D3
:2023A000042003F043F940B206F052FF28A3D3E9002306F0B7FF07F0E7F901462A4809F0B2
:2023C00032F8012803D1A378012B00D9E07003B0F0BD2046254C06F065FB23880133238057
:2023E00003F066F802884FF47A70012A04BF1B4B1A80238858430023C11707F05FFD0A2227
:20240000002306460F4607F059FD0A2204460D4630463946002307F051FD1548CDE900234F
:2024200022462B4603F0CEFF03F042F890F9020006F00EFF06A3D3E9002306F073FF07F061
:20244000A3F90146084803B0BDE8F04008F0EBBF7B14AE47E17A843F40B620007A64002069
:2024600009490020F3B82000A45800207064002002B92000FF22482408B5084B08481A60CD
:20248000084AE369121A084998470848084AA369121A0021984701F0A3FFFEE7B4200D40CF
:2024A000404000200E490020CCB92000104900208464002008B5002000F062FA012000F0A5
:2024C0005FFA0D49002000F027FB02F09DFD002002F046FE01F020FA00F036FC00F052FCCE
:2024E0000821064801F08EFB02F0A2FC62B6BDE80840042007F0C2BFC14F2000686400209E
:2025000073B51A4B1B68022B08DD1949194A1A4803F058FF19491A4803F054FF6846082147
:2025200001F070FB174E9DF806309DF80750F46A45EA032548F2A5110220A04729460320E3
:20254000A0471A210120A047736B082269460B20984707F0CBFF00F0F5F800210A4802F08D
:202560002BFB022007F08AFF02B070BDF44400204DB6200048B6200052B6200061B62000BC
:20258000ECB6200098B420002845002007B5044B01A99B6A13209847019803B05DF804FB14
:2025A00098B4200007B5044B01A99B6A14209847019803B05DF804FB98B4200007B5044BCB
:2025C00001A99B6A15209847019803B05DF804FB98B4200007B5044B01A99B6A162098475D
:2025E000019803B05DF804FB98B4200007B5044B01A99B6A17209847019803B05DF804FB5F
:2026000098B4200007B50422044B0DEB02011B6B12209847019803B05DF804FB98B420007F
:202620000022F0B594460126FF270F4D40FA02F3DB0711D515F8121005EB4204CB081B0303
:20264000647803F1804301F0070103F5592306FA01F12CB143F821C00132032AE6D1F0BDCB
:2026600043F82170F8E700BF86B62000F0B500210126FF270E4D40FA01F3DB0711D515F823
:20268000112005EB4104D3081B03647803F1804302F0070203F5592306FA02F22CB143F8CD
:2026A000227001310329E6D1F0BD43F82240F8E786B62000F0B4002101260D4F0D4D0E4CF2
:2026C00017F811300131DA081203505903F0070306FA03F320EA030050511059032943EA75
:2026E00000031351ECD1F0BC0720FFF7BFBF00BF86B6200020940D4000940D40084A1368A5
:2027000023F00403136052F8203C43F0040342F8203C0022034B1A600122034B1A7070471A
:2027200020C40D4010C00D40DA5E0020044B1868C0F30720030904BF1030C0B2704700BF53
:202740001C300D4008B5FFF7F1FF014B1B6808BD1C300D402DE9F04800F07CF8114B4FF0C3
:20276000000BD3E900673A46B04238BF7A1C15464BEA0004C3E900450B49D1E900BCBBEB37
:2027800006026CEB0703161943EB0507C1E9006701F0E6FF18B1BDE8F04801F065BFBDE820
:2027A000F08800BF1849002010490020E0210D4B0D4A5A600D4A82F82310002207219A6036
:2027C00019600B490B6843F001030B60094B1A60042243F80C2C012243F8082C0F22DA62B1
:2027E000704700BF10E000E047E8010000ED00E008200D400C000340034BD3E90023100A8B
:2028000040EA0360704700BF18490020054B18601C3B1A6842F001021A601A68D207FCD4B9
:20282000704700BF2800034010B5064C236823F001032360FFF78EFF236843F001032360B3
:2028400010BD00BF10E000E0014B1868704700BF20490020064B18685A6808331B681B04E1
:2028600043EA0223034A0343106843EA0060704740500D404C500D40014608B5104A136818
:20288000DB07FCD572B6FFF7E5FF0B1A062BD8BFC11D0C4B0A0E1A60C1F3074243F8042C67
:2028A000C1F3072243F8082CCAB243F80C2C62B64FF40032044B1960044B1A6108BD00BF3A
:2028C00050500D404C500D402049002000E100E008B501F0D9F80022064B1A604FF40032F7
:2028E000054BC3F89021C3F89020BDE8084002F039B800BF2049002000E100E0064B1B6804
:202900001B075FBF054B186880F00800C0F3C00048BF0020704700BF18C0004018D00040DF
:202920002C23154A70B503FB00234FF6BF72DC680546236C626413F050020DD00F4EA369AE
:20294000DB0600D570BD56F825301BB12068C0B29847F4E72368F2E713F4D06FF2D04FF4C2
:2029600040732363FF236360E36AE262E362236B43F001032363E5E740B4200024490020AB
:2029800001282DE9F74F064600F2B4802C2545435A4F7C1994F92080B8F1000FC0F2AA8068
:2029A00094F92290B9F1000FC0F2A480544801F0F3F8544A79591368E5680B43136053681D
:2029C000616894F921A00B4353609368A1685FFA89FB0B4393600023C5F8C83F23690AEB55
:2029E000C8021A6094F92330227D00939DF8003058461946019300F037F9019B08221946E6
:202A0000584600F027F901233F494FEA0939009A59F8010003FA02F2024349F801204FEA24
:202A2000083858F8010003FA0AF2024348F801205022AA63AA6B94F9240042F4D062AA63AC
:202A400002226A634FF440722A63A26900286A62E269AA624FF07002EA620D4614DB94F9E1
:202A600025102A4A41EAC0041460020354598B4023435351C9B20022C0B200F0EBF8244A73
:202A8000136843F4004313602C2303FB067393F92640002C1BDB93F927A05FFA84F85FFA73
:202AA0008AF901224946404600F0DEF801232403625903FA0AF3134363510822494640464C
:202AC00000F0C8F8124A136843F4804313602C2303FB0676F268136B43F001031363012291
:202AE00096F82830590903F01F0302FA03F3094A42F8213003B0BDE8F08F00BF40B42000FF
:202B0000FD28200028200D4020940D4004410D4030D0004000E100E001289CBF014B43F83C
:202B20002010704724490020012808D82C22044B02FB0030C3689A699206FCD41960704788
:202B400040B420000022014B1A60704700500D400822014B1A60704700500D40A022024BD2
:202B60001A6050221A60704700500D40014A024B9A6070470020200000ED00E038B5164DF5
:202B8000164C2B68012223F040032B602368062123F040032360032000F05CF82B68012294
:202BA00023F080032B602368072123F080032360032000F04FF80A4B0A4A0B491A600B4A02
:202BC000134610680842FCD11A685101FCD41A685201FCD538BD00BF20C40D4000C40D40CD
:202BE00000200D40010102000000010104200D402DE9F84305464FEA0538DFF8389008F147
:202C0000804606F5592600F03FFFD6F8187458F80940ED00EC4047EA0400C0B2E4B2A84015
:202C2000FFB2AC4002F008FAC6F81C7448F80940BDE8F88318970D40034B044A1A60044BAB
:202C4000803A1A60704700BF2C49002080400D4030490020034B01EBC0011B6843F8212095
:202C6000704700BF2C490020034B01EBC0011B6843F82120704700BF304900200E2870B5E5
:202C80000BD1154B154E1C6844F002051D60356825F03F0343F001033360114E336823F08E
:202CA000FF031A43114301430E4A316013681B06FCD50D4B0D4A1B6812680E2803F0FC03F3
:202CC00043EA022308BF054A1BB204BF1560024A184608BF146070BD34000144F48608403A
:202CE00008700D4000700D400C700D4010700D40024B1868B0FA80F04009704700B70840D6
:202D00004FF40042064B10B5064CC3F89021C3F89020206818B101F067FF0023236010BDD4
:202D200000E100E034490020064A136843F002031360536843F002035360936843F00203E6
:202D40009360704748200D4007B50C4800F024FFFFF7EAFF0A4B1A6842F002021A60002269
:202D60000192019A0F2A06DD1A6822F002021A6003B05DF804FB019A0132F1E7F12C20000D
:202D800054200D40064A136823F002031360536823F002035360936823F0020393607047D9
:202DA00048200D402DE9F04188460126C7083C0300F0070104F180448E4018F00C0304F585
:202DC00059246FEA060522D1D4F810342B40C4F8103418F0030249D13846FFF73BFFD4F803
:202DE000103418F0800F1FBF1E43012303FA07F7214B0BBF2B40C4F81064C4F810341F604A
:202E0000D4F820341D40C4F82054BDE8F081042B0FD1D4F804342B40C4F80434D4F8083475
:202E20002B40C4F80834D4F80C343343C4F80C34CFE7082B0DD1D4F804342B40C4F8043487
:202E4000D4F808342B40C4F80834D4F80C342B40ECE70C2BBDD1D4F804342B40C4F8043495
:202E6000D4F808343343C4F80834B2E7022AB3D0012AB4D10422AFE700E100E0044B186898
:202E800000F02200A0F1200358425841704700BF4C860840024B186800F04000704700BF36
:202EA0004C8608402DE9F84907468846FFF7D2FC0F4BDA5D82B10F490F4A51F8276002EB90
:202EC000C702861BD2E9004514EB060B45F1000CC2E900BC0022DA5513F808202AB9054A19
:202EE00042F82800012203F80820BDE8F88900BF0061002008610020D8600020204B1870F0
:202F0000002832D01F4A13681B03FCD51E4B1A6842F002021A601A6842F001021A601A6866
:202F20005007FCD51A6822F001021A601A685107FCD41A6842F002021A601A6842F00102C5
:202F40001A601A685207FCD5104A136823F004031360D2F8A83123F00403C2F8A8314FF456
:202F600000520B4BC3F890207047084A136843F0040313604FF40052054B1A61704700BF37
:202F8000DC5E002004200D40048808408C86084000E100E00B280DD1082A0DD161B1074BF2
:202FA000074A083111F8010D43F8040B9342F9D1002070470120704702207047A88508408A
:202FC000C885084070B52F4E336813F0400356D02D4D2C68230604D5ED2200202B4B1A6084
:202FE00070BDE4B2042CF7D9023C8C42F4DCE4B2032C1ED12B6803702B6843702B688370AC
:203000002968234B493949B219702B68214D18062B70E1D589B2042002F000FB297803202B
:2030200001F07F0102F0FAFA1B4B1B78CBB12046D6E701190139032000F090FC174B611ECD
:2030400043EA0111032000F093FC032000F09AFC032000F0AFFC032000F0B8FC0028FAD16E
:20306000CEE733685A06E2D533681B0603D50C4801F0BAFDDBE7ED22044B1A60D7E71846A3
:20308000AEE700BF4C8608402888084038880840DE5E0020DB5E0020DC5E002002C0010CE4
:2030A000CC4400200B282DE9F74F0E4612D1082A40F08D80002900F08A80464B464A4E1EFB
:2030C00053F80419934206F8011FF9D1002003B0BDE8F08F0C2870D1042A78D1002976D079
:2030E0003E4A3F491368DFF80CE123F0070313600B68DFF804A143F008030B60DAF8003057
:20310000DEF800401068DFF8F4C0364F20F070001060DCF800003D68DBB2240243EA056360
:20312000A4B20004234300F47F0003432E48D0F800805FFA88F4019400240094DDE90089E7
:2031400048EA0308136823F0070343F0010313600B6843F008030B60DAF80030DEF80010EC
:203160001568DBB225F0700545F010051560DCF800203D68090243EA056389B212040B4324
:2031800002F47F02134302680098D1B28B4640EA030AFFF75FFBB8EB0A0869EB0B094B46D7
:2031A0004746D9030546114A0023F80341EA574106F084FE281A306088E7122805D1042A28
:2031C00005D121B10A4B0B6080E701207FE702207DE700BFC4850840A48508401088084072
:2031E00004880840208808401C8808400048E80128B6200018880840148808402488084030
:203200002DE91848154B1A689207FCD41B685B065EBFED22124B1A60124B1B6813B1EF2251
:203220000F4B1A60104A114C137803F07F03137023797BB1FFF70EFB0D4B0E491B69C01AAC
:20324000D1E9082312EB000B43F1000C0023C1E908BC23710120BDE8188800BF4C860840DD
:20326000388808402C860840DD5E00200061002008610020D860002010B50C4B93F90020C7
:20328000002A08DBED210A4A1160E32111601A7862F07F021A70074C23792BB9FFF7DAFA4D
:2032A000054B186101232371012010BDDD5E002038880840006100200861002010B50A4B18
:2032C00004461B6813F03F0302D0FFF799FF012304EB840205492C3A0A600BB1FFF7CCFF48
:2032E000034B1C7010BD00BF488608403C860840064900202DE9F0412E4F3D7815F0010555
:2033000055D10124F8222C4B4FF07F081C605C609C60A3F59323A3F514731A600922C3F80A
:203320009021152270331A600B2203F59B2303F59E731A60A3F59B23A3F5A6731C6040233C
:20334000D5221E4E3360336843F0200333601C4B1D60C3F848809A631A4B1878FFF7AEFFF7
:203360004FF480423368022023F00C033360164BC3F80080154B1A6100F010FB14490220E5
:2033800000F0ECFA032000F009FB1149032000F0DDFA104B1878FFF7B1FD0F48294601F0B6
:2033A0000BFC20463B7823433B70BDE8F0810020FBE700BFDD5E0020A8200D4024860840A3
:2033C00008860840064900209486084000E100E028880840DC5E0020CC44002038B50C46C4
:2033E000002900F09680182800F29580DFE800F00D1E21282A40495C61767A9393937F8113
:203400005983938587898B8D8F00444B186810F0FF0001D1206008E0414B1B6813F0030F95
:2034200014BF022301232360002038BD3D4B1B78F9E73D4B1A68043B1B6843EA0223F2E7E6
:203440003A4BF7E700230B60394B354A1B6803F001030B601268920644BF43F002030B60DB
:20346000344B1B78002BDFD00B6843F00403DAE70020314B08601B78002BD5D001230B60FC
:20348000D3E72E4B2E491A680023D2B201EBC3000079904202D851F83330C4E701330E2BC1
:2034A000F4D16FF01703BEE7264B1B685BB2493BB9E7254B1B689B060ED1FFF7DDFE01229D
:2034C0002248036859B28031FBD0493B5DB20AB1FFF796FE2560A7E70022F1E71C4B93F9B8
:2034E0000030A0E71B4B1B7803F07F039BE70B2399E71A2397E7072395E7032393E7202333
:2035000091E70C238FE708238DE7002082E77D2389E7022089E7012087E700BF2C8608407C
:203520002486084006490020CC850840D485084000860840DC5E002007490020408608404A
:20354000D0B42000588608404886084060860840DE5E0020DB5E002010B50B4B1B6899066B
:203560000FD1FFF789FE012308490A68D207FCD5074A1468C4F300140BB1FFF741FE20466E
:2035800010BD0023F0E700BF48860840648608404C8608407D2938B505460C4624D8134ABA
:2035A00013689B07FCD4124B93F90030002B01DBFFF762FEEE220F4B691E1A60A21C43F844
:2035C000102C2144022000F0C1F90B49013C41EA0411022000F0CCF9022000F0D3F90220D6
:2035E00000F0E8F9002038BD0120FCE74C860840DD5E00203888084002C001C038B5038869
:20360000044653B340F25A42934233D11B4B18781A4638BB822923D1137873B901F0B4FF70
:2036200001F046FF8021FFF7CDFC002805DD80B201F022FF124BDB689847124B1A785206E0
:203640000BD500221A70104B1D68FFF7D9FDFFF751FEAB0601D0FFF70FFE40F25A432380F6
:2036600001200AE01B78002BFAD0064B1B785806F6D5CFE700230380032038BDDC5E0020DC
:203680006CB52000DD5E0020488608407D28F8B54BD8274B93F90030002B18DBFFF7DAF8EF
:2036A0000446FFF7E9FDC4F1FF2404F57F04F634FFF7D0F8C442FBD401261E4B1B7843B9B4
:2036C0001D4D2B68990609D502242046F8BD0026F3E7FFF741FF0028F2D1F5E703210420EA
:2036E000FFF7E0FBE9220424144F3A602B689A0703D4013C14F0FF040ED12B689B070FD483
:20370000EE2301243B6004210320FFF7CBFB002EDBD0FFF775FDD8E70620FFF777F8E5E77D
:203720002C6814F00204FBD1EDE70124CDE700BFDD5E0020074900204C86084038880840C6
:2037400013B50C460D2800F2A280DFE800F0074850575B777E92A0A0A0A0A097012902D1C3
:20376000FFF78AFD02E019B9FFF74AFD00206AE08B1E012B00F28D8001A90020FFF72EFEB1
:20378000022C019B19D1022BF0D05A1E53425341414A1370FFF734FD404B414A19681160AA
:2037A00042221A60D3F8C0103E4A11601822C3F8C020E922C3F81422D8E7022BD6D1EF2222
:2037C000394B1A60364B1A68344B1A60354B1A68364B1A60304B1B78002BC7D0C0E7A1F1E9
:2037E0000B030F2B55D8C8B2FFF768FDBEE78CB22F4BE2B2240A1A605C60B7E78CB2E2B2BA
:203800002C4BF7E731F0070343D12B4B11F0010F1A68C1F3800014BF42F0010222F00102BA
:203820001A601E4B11F0020F1A6814BF42F0200222F020021A60FFF761FB97E731F001004A
:2038400027D11E4B197002B010BD01F118031F2B1FD80D231A4A52F83300D900844204DC21
:203860000A441279174B1A6080E713F1FF33F2D27CE7CCB2144B49341C6077E7074B1A68C7
:2038800011B122F00C02EEE742F00C02EBE70120D9E70220D7E700BFDF5E00202486084090
:2038A000384900203C49002038880840E4860840C8850840D0850840008608400749002098
:2038C000D0B42000408608405886084008B5054B1B7813B9044801F087F90022034B1A60FD
:2038E00008BD00BFDC5E0020CC44002034880840064B07481A68042A1FBF06490A7842F085
:2039000040020A7000221A6001F06EB92C880840CC440020DD5E002010B5094C4022002113
:20392000204606F05DFD0122064B1A604FF480425C60054B5A604FF400425A6010BD00BF4D
:203940000040002004F00F4000E100E003289EBF014B0001195070470040002003289EBF26
:20396000024B03EB00104160704700BF0040002003289EBF024B03EB00108160704700BF5B
:2039800000400020032806D80123034A03FA00F0116808431060704728F00F40032806D805
:2039A0000123034A03FA00F0116808431060704720F00F40032806D80123034A03FA00F0F8
:2039C000116808431060704714F00F4003289FBF044B03EB0010806800F0070088BF00208D
:2039E000704700BF004000204FF0FF32014B1A60704700BF04F50F400122014B1A6070475D
:203A00004CF00F40084B19461A68D002FCD4074B1A6822F480321A600A68D203FCD41A6896
:203A200042F400321A60704704200D4000200D402DE9F84907468846FEF70CFF0F4BDA5D0C
:203A400082B10F490F4A51F8276002EBC702861BD2E9004514EB060B45F1000CC2E900BCA2
:203A60000022DA5513F808202AB9054A42F82800012203F80820BDE8F88900BF0061002082
:203A800008610020D860002010B50E4C2368980716D00D4B1A4619684901FCD413685B01EC
:203AA000FCD5FEF7C1FEFFF7ADFF2068002100F00300012818BF0220FFF7BAFF00232360CC
:203AC00010BD00BF58200D4004200D4038B52C4B1C6814F03F042ED12A4D55F8243023B10A
:203AE000984740B30134052CF7D1274D2B7813B3FEF7AAFE0446FEF7ADFE201A09281AD904
:203B0000CCB1224B1A6822F400321A60204A11461068C002FCD41A6842F480321A600B6855
:203B2000DB03FCD5FEF796FE201A092807D8BDE83840FFF767BFBDE8384006F008BD632867
:203B4000144C0CD92B78022B09D1236001F002F8054630B1FFF756FF0023236038BD0123D2
:203B6000F3E7FEF771FE0028F4D02168284601F00301012918BF0221FFF75AFF30BFEDE7F9
:203B80004886084040490020E05E002000200D4004200D4058200D400023064A52F8231075
:203BA000814206D011B942F8230070470133052BF4D17047404900200022054B1A60054ACA
:203BC000136943F0040313610222034B1A70704758200D4000ED00E0E05E00204FF4803223
:203BE000064B10B5064CC3F89021C3F89020206818B100F0F9FF0023236010BD00E100E019
:203C00005449002010B5134B1B780BBB124A1278122A03D1114A12784B2A0FD001F5201214
:203C2000273212E003F52012032BD4BF2C3224321478CA1A024402F8014C01338B42F1DBD0
:203C400010BDD41A2478C45401338B42F9DBF7E70023E3E72B0028002A002800290028005F
:203C60002DE9F843038806463BB1B3F5127F0BD0002303800320BDE8F8834021314806F063
:203C800029FD4FF4127333802E4806F03EFD0028F1D003F049F904462B4D2C4FB4B92C4D9B
:203CA0002C4F2B68DFF8B880186906F0BBFD0446DFF8B090B4B9284A1368174601331E2B23
:203CC0002EDC13601F4806F00EFDDAE72B68A34206D03B68A34203D0208FFEF71DFB208732
:203CE0002468DBE7E069FEF717FBE06106F0DCFC88B93B78012B0ED1237D5B070BD406230E
:203D00004046E1183B7006F087FE238A628AA9F80030124B1A80204606F0AEFD0446C9E79C
:203D2000146003F001F940B92B68186906F07AFD28B93B6801333B60C4E70068F3E706F072
:203D40009BFDF5E75C490020906100208C6100207049002008490020584900200859002080
:203D60001C6400200A590020044B1A78032A04D119B905221A70024B1960704708490020CC
:203D8000784900202DE9F047624B88B01B6880460F46164653B9012304225F495F4806F07B
:203DA00079FE0024204608B0BDE8F0875C495D4806F035FE0028EED15B495A4806F02FFE6B
:203DC00004460028E7D1544D39460A22284685F8148006F02DFA0A223146A81806F028FA56
:203DE00001F0D2FB1621284601F0DEFB03210E2001F014FC4D490F2001F01EFC49491020B1
:203E000001F01AFC4A4B07201A68013208BF01221A60198801F002FC0121082001F0FEFB02
:203E200003210E2001F0FAFB424B5B689847071EB1DB3C4803F098F806460028B2D003F07A
:203E4000A5FE05460028ADD103F0A6FE002840D006F13408404606F0BDFC00B2431C2CB2A8
:203E600005F101052CD1072C03D1069803F04EF9062403F0B3FE284B284A0821294803F02A
:203E8000F7F8824603F088FE70B106F13409484606F095FC00250FFA80F8B8F1FF3F2ED0FD
:203EA000A54218D103F09AFEBAF1000F3FF473AF8AF80F701B4803F03DF80124448771E7C4
:203EC00008AB06EB800003EB8404436944F8203CC0E70446CFE7484606F063FC08AB03EBD9
:203EE000850353F8203C06EB8808C8F81430484606F065FC01352DB20FFA80F8CDE7631E5E
:203F00009D42CFD108AB03EB840454F8200C03F0FDF8C7E7584E002024640020693D2000B7
:203F200018B620001C64002010B6200068640020D844002060B520002DE9F04F3C4B8FB095
:203F40009B68984701F0B4FA1622014608A806F06FF90F2001F07CFB02AE0146684606F021
:203F60005BFD05AF0A2208A93046324D9DF8348006F05EF90A220DF12A01384606F058F9B3
:203F80002B78012B34D169462B4806F045FD0A2231462A4806F04CF90A223946284806F092
:203FA00047F9B8F1010F3DD10024DFF89890DFF88CA0DFF88CB036F81410D9F8000007F0A7
:203FC00037F948B14FF6FF732AF814302BF8143026F8143027F814300134052CEBD13A46CD
:203FE00031460220FFF7CEFE012801D103232B702B78022B13D1B8F1020F10D10E49684656
:2040000006F00DFD58B10A2231460C4806F010F90A2239460A4806F00BF904232B700FB029
:20402000BDE8F08FB8F1020FE2D10423DFE700BF60B52000084900201C6400200864002071
:20404000126400207049002013B5044602F072FFE8B11049204606F0E2FCC0B90E4920461A
:2040600006F0DDFC024690B90223D0200193E179A3791944013191FBF0F300FB1311074855
:2040800089B2009123460621006803F0B7F902B010BD00BF18B6200020B6200070490020BE
:2040A00070B5134B05461B680C468B421ED0114B1B688B421AD00E8F06F0FCFFA27C014619
:2040C0003046FEF7F5F8208780B206F0F2FA68B9094B1A78012A09D1628F3AB902221A702F
:2040E0002946BDE87040054806F096BC70BD00BF906100208C610020084900201C6400204C
:2041000037B560B3837AC27A9D201A44013292FBF0F300FB13239BB229BB4FF6FF749D25CD
:20412000254A26491068CA7989790A44013292FBF5F105FB112293420DD101220521CDE90B
:2041400000321F4B022203F059F94FF6FF739C4219D103B030BD194607F07FF8F5E7002969
:20416000F7D04FF6FF738C7ACA7A9D212244013292FBF1F401FB1424A4B29C42E9D04FF648
:20418000FF729342CBD19D220C4B0B48D9799B791944013191FBF2F302FB13110123CDE973
:2041A00000430222064B8C420CBF07210621006803F024F9CDE700BF7449002068640020AB
:2041C00018B620002DE9F047494C88B02378012B61D0484802F0C8FE23780546062B07D1A8
:2041E000454B1988454B186807F037F8012323702378042B21D141F225332B870025404EF5
:204200003E4FDFF804814FF6FF7236F8153093420DD038F815200121CDE90032354B0022C9
:20422000386803F0EBF810B141F28833C3610135052DE8D1012323702DE0052B1FD141F2FD
:2042400025332B8700252E4E2C4FDFF8BC804FF6FF7236F8153093420DD038F815200221C2
:20426000CDE90032234B0022386803F0C7F810B141F28833C3610135052DE8D1DAE7032B91
:204280000CD1204A13680133B42B136003DD012323700023136008B0BDE8F087022BFAD1DD
:2042A00000264FF0D008DFF854900DF1080A00F045FFB0FBF8F505FB180500F03FFFADB280
:2042C00007462946D9F8000006F0B2FF0028EED105AA07F00F072AF8165022F816700136A8
:2042E000052EE4D151460120FFF74CFDA2E700BF084900201C6400200A590020704900202A
:204300000864002078490020126400204FF6FF73F7B52B492B4A0B804B808B80CB800B8116
:204320000220D021138053809380D380138102F0C5FF254E9D213060012002F0BFFF234D52
:204340009D212860002002F0B9FF214B9D2118600123204F0193BA79FB791F4C13440133E7
:2043600093FBF1F201FB12339BB2009302222346052103F043F80223D0210193BA79FB7979
:204380001344013393FBF1F201FB12339BB200933068002623460022052103F02FF823460E
:2043A00032460721CDE90066286803F027F803F01BF93146094803B0BDE8F04000F0FCBBA1
:2043C0000864002012640020704900206C490020744900206864002018B62000DC44002016
:2043E00010B5504C06F076F8FEF7E0F906F092F900F054FB00214C4800F0DEFB00F030FAD2
:20440000FEF7A0FB00F0B6F800F0FAFBFEF752F800F0E2FE01F02CF900F0B8FA2368022B0A
:2044200007DD424A4249434801F0CCFF424801F0C9FF2368022B09DD3D493C4A3D4801F0D7
:20444000C1FF3E4B3E48196801F0BCFF2368022B09DD3749354A374801F0B4FF394B3A489A
:20446000196801F0AFFF2368022B09DD30492F4A304801F0A7FF354B3548196801F0A2FF6D
:204480002368022B09DD2A49284A2A4801F09AFF48F2A5112F4801F095FF2368022B08DD14
:2044A0002349224A234801F08DFF04212A4801F089FF2368022B09DD1D491C4A1D4801F06C
:2044C00081FF264B2648198801F07CFF2368022B07DD164A1649174801F074FF214801F0F8
:2044E00071FF2368022B02DD1F4800F05BF92368022B02DD1D4801F065FFFEF701F8FFF7D5
:2045000005FF1B4806F0DCF8FEF722FB00F0DEFA0446FEF723FB14F0FF0FF7D105F0E4FF81
:20452000F4E700BFF4440020E8440020B1B620004DB6200052B62000B6B6200098B5200072
:20454000CBB6200088B52000DAB620006CB52000E5B62000F0B620000AB720000C59002085
:204560003FB720004CB7200068640020DBB82000E8B52000F8B5002300261A4600270949D7
:20458000094D0A4C45F823201A550133052BE1E90267F7D1237823B9FEF75CF901232860B4
:2045A0002370F8BDD060002008610020006100202DE9F84300240D4E0D4F0E4DA35D83B19E
:2045C000FEF748F955F8243007EBC40CC11ADCE9002312EB010843F10009CCE9008945F8C1
:2045E00024000134052CE9D1BDE8F88300610020D8600020086100202DE93048084BD3E958
:204600000201D3E9004510EB040B41EB050CD3E904231BEB02004CEB0301BDE8308800BF0D
:20462000D860002010B50E4C236813B90D4A136010BDFEF7E1F82168D1E9002313448A6898
:204640001B1A1AB91844074B1860F1E7D2E900142144091A8B4228BF0B469268F1E700BF67
:20466000804900207C490020014800F0BDBA00BFE84400202DE9F8430388054653B1592B02
:2046800047D1872920D1002024490B6863B918B10B6001E0214A1360592301202B80BDE865
:2046A000F88301203346F1E7D3E902649442F8D000B10B6099680029EED0C86890420ABF7E
:2046C00089680B469960F5E78229E5D1134F4FF00009B84600263C68002CDDD0204606F0BB
:2046E0002EF898B122468821E06800F03DFA58B9E060A3682EB1B360C4F80890FFF792FFA2
:20470000E8E7C8F80030F7E7FFF7AEFF2646A468E2E7002303800320C1E700BF80490020FF
:2047200010B50446FFF7A0FFE3680B4A0BB1136833B90A4B1B68E36013681460A36004E021
:20474000A34206D1054A1268DA60BDE81040FFF769BF9B68ECE700BF80490020104B00208E
:20476000024B1868003018BF012070478049002010B50B4A04461368834208D183681360C9
:20478000FFF750FF0023C4E9023310BD1346002BF8D09A68A242F9D1A2689A60F0E700BF6C
:2047A00080490020F8B5054688B9BDE8F8400A4801F008BEE30702D4384601F003FE295D3B
:2047C0003046013401F0FEFD082CF3D1F8BD0024024E034FF3E700BF61B7200072B72000B5
:2047E00070B72000F8B5038806461546CBB14A2B2BD188291FD1174806F014F80446C4B1E5
:20480000231D9D421FD12146124806F015F8124D62692F682A60A2690AB1E06990472F6005
:2048200007E00C4805F0FEFF044634B901220B4B1A704A23338001200AE0A168201D05F0AB
:2048400049FF2468F1E72468D9E7002303800320F8BD00BF88490020104B0020E15E002058
:2048600010B50024054B06481C7005F0D8FF2146BDE81040034800F09FB900BFE15E00204C
:2048800088490020F844002070B50446E3610B4B049D1B78C4E905526BB1094D094B2E682E
:2048A000201D2B6005F016FF2E602146BDE87040054805F0D4BFA160F7E700BFE15E00200A
:2048C000104B0020F84400208849002013B5034C24680094FFF7D8FF02B010BD104B002012
:2048E00010B5084B04461B7843B10430FFF740FF2146BDE81040044805F09EBFC0E903338D
:20490000F6E700BFE15E00208849002010B50A4B04461B7823B1BDE81040043005F0F5BE0F
:20492000064805F07FFF08B9012010BDA04201D00068F8E70020F8E7E15E002088490020BE
:20494000024610B5064853600468029B11609360026014B90846FDF78FFF002010BD00BF31
:204960008C49002010B5084C206858B100232360D0E901319847236823B1BDE81040186854
:20498000FDF77ABF10BD00BF8C490020034A9179D379034A03EB0123138070476864002031
:2049A0000C59002038B5436804460D469BB10A4804600220A07204F10800984702380128C8
:2049C00001D9832D05D121462046BDE8384000F005B80123A37238BD104B00202DE9F843E6
:2049E0001C4F89463D682C46844204D00CB9BDE8F8832468F8E7002CF9D0174EA37AD6F837
:204A0000008063B10023A3728DB963683BB14C4505D034602A46832104F1080098473B6840
:204A2000A3420ED123683B60C6F80080DFE7AC4204D022468721284605F06EFE2D68E3E788
:204A40001346002BF0D01A68A242F9D122681A60EAE700BF144B0020104B0020002238B545
:204A60000125084B1A70084B1C6804B938BDE37A2BB16581002282212046FFF793FF24684C
:204A8000F3E700BFE55E0020144B0020024B1878421C1A70704700BFE35E00208A22064B02
:204AA0001A700023054A1370054A1370054A1360054A1360704700BFE35E0020E25E0020EA
:204AC000E45E0020144B0020104B00202DE9F0411B4D2B780BB1FFF7C1FF1A4C22789AB16B
:204AE0000C21194E194F3378013A59430133781803F01F0317F801803370D0E90170227070
:204B000090B9134B1E6826B92B7820781844BDE8F0812B780BB1FFF7A1FF30463A4641466A
:204B200005F0FAFD3668EEE7B8F1810F08BF01233A4608BF8372414605F0EEFDE4E700BFC5
:204B4000E55E0020E45E0020E25E002090490020144B0020024A034B10781B7818447047F0
:204B6000E45E0020E55E0020F0B50B4E3378202B0FD00C25094C0A4F24781C4404F01F04AB
:204B80006C433D19C5E901200020013339553370F0BD0120FCE700BFE45E0020E25E00208A
:204BA0009049002038B5034C256805F0B5FD256038BD00BF104B002030B40A4C0A462568C1
:204BC0002B4683420CD04BB950B101210560817220600381812130BCFFF7E4BF1B68F0E7BF
:204BE00030BC7047144B002038B1837A013B012B9FBF0123014AC37213707047E55E0020A6
:204C0000CD2182B0064B02AA42F8043D934204D30021044802B0FFF7CFBF03F8011BF5E7BA
:204C2000846400200445002038B5FDF797FF0C4C0C4D2378CD2B0CD0AC4207D3FDF78EFF23
:204C4000AC4234BF281B4FF0FF3038BD0134F0E701342378CD2BF1D1AC42F9D3EEE700BFE9
:204C600084640020886C002070B5038805460BB3912B37D11D4805F048FD10B3FFF7D4FF70
:204C80001B4C1C4B061EA4EB030401DB002C1ADA194B1B68002B09DD184A1949194801F082
:204CA00091FB22463146184801F08CFB0F4805F01AFD04E04FF4A0610C4805F00BFD912321
:204CC0002B80012011E0A642F0DD0B4B1B68002BECDD0A4A0A490B4801F074FB224631465C
:204CE0000A48E1E700230380032070BD184B0020886C002084640020F444002077B720005F
:204D00007DB7200052B6200081B72000ABB7200010B5044690F84C30084A013380F84C30B0
:204D2000802103462030FFF7D1FD054B2246BDE8104019780020FFF717BF00BF114D20000E
:204D400080640020F8B503880446A3B1D52B27D1822912D105F007FCBFF35F8F0022124BDC
:204D60001E681A60BFF35F8F05F001FC0F4D104F55F8040F18B9D5232380012013E090F87E
:204D8000453026FA03F3DB07F2D5FFF7BFFD0028EED02B683A4602211846FFF797FDE7E75B
:204DA000002303800320F8BD344B002064440020CD4D2000034A1368184310600248FFF701
:204DC00013BF00BF344B00201045002070B50446FFF79CFD20B304F120063046FFF796FD43
:204DE0000546204605F0C3FC012811D1C5B1002523460C4A84F84C507E213046FFF766FD63
:204E00002246094B2846BDE870401978FFF7ACBE30B92DB93046FFF763FD2246034BF1E7F9
:204E200070BD00BF114D2000816400207F6400202DE9F843FFF72AFE304B314E1870FFF719
:204E400025FE304B304D1870FFF720FE2F4B304F18700023B3602F4BDFF8C480DFF8C49024
:204E6000736055F8041F39B92B48FFF7A5FEBDE8F843234800F0DAB8012491F845308A6C0B
:204E8000D9080903C85903F0070304FA03F320EA0303CB512B6893F84530D908090351F81E
:204EA000080003F0070304FA03F320EA030341F808302B6842F08C0193F84500FDF772FFF1
:204EC0002B6893F84530DA08120352F8091003F0070304FA03F30B4342F809302B680F4A47
:204EE00093F84530DB0804FA03F313602B6893F845309C40B3681C43B460B2E781640020CD
:204F0000284B00207F640020644400208064002020940D40B54D20001045002000E100E0D6
:204F200000940D4010940D4070B5058804466C2D09D07E2D2FD0002D33D1FFF7A7FD1B4B56
:204F400018701B4B1D601B4E194D08E00A282B680ED07E2B03DC5A1C2A60174AD054304609
:204F600005F0EFFC431CF1D16C23238001201BE05A1C2A600025104A2846D5540B4B1978E5
:204F8000FFF7F2FD0D4B2A4685211868FFF7ECFD18B97E23E9E78529E8D10022044B1A60CB
:204FA000D1E700230380032070BD00BF82640020384B00203C4B0020E65E0020104B002055
:204FC0000D2810B5014616D00C4C237853B90C4805F0A4FC08B9012323700A48FFF704FE00
:204FE000012010BD0A28F8D1054805F097FC0028F3D00023F0E70020F3E700BF665F002070
:205000003C4B00201C45002008B505490548802205F07DFCBDE8084000210348FFF7CCBD28
:20502000675F00203C4B00201C4500200146014805F015BC444B002038B50546064805F0E2
:20504000F1FB044604B938BDA068284002D0636803B198472468F5E7444B0020014805F073
:20506000DEBB00BF444B00202DE9F04104880646772C20D07E2C3DD0002C4ED1FFF706FD7C
:20508000284D294B294FDFF8B08018702C602B6857F823202AB9264A13707723338001202B
:2050A0003EE008F8034093680021802098472B6801332B60EBE700231E4A1360194A1360FC
:2050C000184B1B4A1B6812789A4204DC194B1B68002BF0D1E1E7184AD256002A19DA134AA0
:2050E000002052F82320104B1978FFF73DFD28B97E23D3E70C4B1B788B42D0D1094B0E49A8
:205100001A688B5C03F07F038B540A4A136801331360044A13680133D1E7002303800320DE
:20512000BDE8F0814C4B002083640020C0440020E75F0020484B00207C640020064A136893
:2051400043F004031360054B186804331B6840EA032080B2704700BF00700D4014700D4095
:2051600010B5174A136823F00C0313600122154B1A601A68012AFCD10822134B13491A6024
:20518000E32203F505731A601A460B68DB07FCD50F4C102100232068013900F0010043EA0B
:2051A00000034FEA43039BB2F5D1002BF1D00949180A03F0FE0308600B60EF23136010BDE1
:2051C00000700D40A8200D4024860840648608409C86084014700D4008B5044805F04FFB56
:2051E000BDE80840024805F04ABB00BF404500203445002038B50E4805F051FB054650B1B1
:205200000C4805F04CFB0446286030B92946084805F059FB2546284638BD00F051F904F13E
:20522000A001A4F8800004F1820000F0D3F9F2E7344500204045002010B5014604460748C2
:2052400005F057FB48B12168054805F03CFB2146BDE81040014805F036BB10BD344500201B
:205260004045002010B501460446094805F041FB68B12468B4F88010204600F095F904F1F7
:20528000A00104F18200BDE8104000F0B5B910BD3445002010B501460446034805F029FB83
:2052A00000B1206810BD00BF3445002030B1054B9B68C01A044B8010584370474FF0FF30E3
:2052C000704700BF4C450020ABAAAAAA38B50D4D002818BF05460C4805F0A4FA044610B973
:2052E0004FF0FF3038BD211D284605F098FB20B12046BDE83840FFF7D9BF204605F0BCFA24
:20530000ECE700BF10B62000904B002008B5024605F040FB42B1431C06D0044B1268185C80
:20532000104100F0010008BD0020FCE7006000202DE9F0470D46064618B900242046BDE8F7
:20534000F0873D4B002908BF1D462846FFF7BEFF441C074645D1394805F0A1FA0446A0BB61
:20536000374805F05FFA27460246DFF8DC80DFF8D490002A45D1002CDFD00027DFF8CCA0B8
:2053800020465AF82720FFF791FF014682B1D2F80880B8F1000F0BD0104605F0F1FA0146AC
:2053A00081461046FFF7B2FF012801D14846C0470137082FE4D12046FFF778FF0022214B14
:2053C00021461A541E4805F037FA21461C4805F046FA2046FFF76AFF29460746201D05F0B9
:2053E0001BFB3946304605F0CBFA04467268002104F0F6FF012322463146124805F0D5FA99
:205400009CE71046FFF752FF18F800304BB919F8001059B90CB1BB4203DA1446002BACD05D
:205420001F46104605F028FA0246A2E7C80748BF01334910EDE700BF10B620004C4500203C
:20544000904B002000600020F85F0020704B002010B507490B88834208DB064C80B2228801
:205460000244181A08800120228010BD0020FCE78E5E0020905E0020014B1880704700BF25
:205480008E5E002000487047C44B0020014B1888704700BF8E5E0020034A044B10781B78AD
:2054A0001844C0B2704700BF04600020905E002008B5FFF7F1FF014B184408BDC44B0020D7
:2054C00070B50D4D0D4C2A78238806461344802B0FDC0B4904F0ACFE2B781E44FFF7E8FF9A
:2054E00022880146304604F0A3FE28782388184470BD0020FCE700BF046000208E5E00208A
:20550000C44B002008B5FFF7C7FF024B1B88184480B208BD8E5E002010B50146FFF7F2FFA1
:205520004318802B0FDC094B013800B25A18040405D5074B187808441870012010BDC45C23
:2055400014540138F3E70020F8E700BFC44B00200460002038B5094D094C1E220021094815
:2055600004F03EFF2946204605F056FA294604F10800BDE8384005F04FBA00BF10B62000B4
:205580003A6400204A6400200023044A1380044A1380044A1370FFF7DDBF00BF905E00206A
:2055A0008E5E00200460002038B50C460546FFF7EBFF802C28BF802429462246034804F0A4
:2055C00037FE034B20461C8038BD00BFC44B00208E5E002010B50C461E22054904F028FE98
:2055E0002046BDE810401022024904F021BE00BF4A6400203A64002010B50C461E22014617
:20560000044804F015FE2146BDE810401022024804F00EBE4A6400203A640020024B23F8AB
:2056200010100120704700BF4A640020014B33F8100070474A64002008B5044B0F3803EB98
:20564000C00005F0E9F9012008BD00BF3A640020024B0F3803EBC000704700BF3A640020DA
:205660000149024805F0DBB910B6200042640020054B10B51B689847044B5B689847BDE854
:205680001040034B5B68184798B420006CB5200088B520000146014805F0BEB96864002058
:2056A000F8B531F0020307460E4615462FD10146174805F097F9044650B9034609223946AA
:2056C0001348FFF735FE044608B305F0C2F9A080FDF792F8237A20602B44102BA8BF102392
:2056E0002046022E237208BF0C3505F0A0F9002814BF0A221922ED01ADB25543A388C2F1C4
:20570000640101FB03556423B5FBF3F5A580F8BD58450020F8B5FDF76FF8002504460E4F46
:205720000F2007EB0516FFF793FF314605F077F968B10720FFF77AFF337B83420AD1B068B4
:20574000201AB0F5206F8CBF00200120F8BD0135102DE5D10020F9E7744C002070B5144D0B
:2057600000242E460F20FFF773FF05EB041105F056F9013408B9102CF4D12401103C0FD169
:205780000720FFF753FF3073FDF736F8B0600F20FFF75EFFBDE870400146054805F03CB970
:2057A00060191022A0F1100104F042FDE6E700BF744C00202DE9F84F0646144612B94FF0F0
:2057C000FF3064E04FF00008C1464546DFF81CB282F8038021B9801BB8F1000F57D146E060
:2057E0000129ECD9824643781AF8022B8F1E42EA032212B2B8F1010F93B2FFB24FEAD2720A
:2058000037D007D3B8F1020F48D07F1B0AEB0500F9B2DFE7002AD2D103F07F05C3F3C713FC
:205820007E2B18D07F2B1ED0AF42C8D31E2BC6D1022DC4D1C278837843EA02231BB2D90FD3
:205840009AB2A170110546BF42EA0B031BB2C3F30B032380D9E7002DB1D1AAEB0603E37002
:205860004FF00108D1E7002DA9D1AAEB0600E0700DE0002AA3D0C3F30A02C3F3C323012B82
:2058800007D00F2B9BD1002A99D1AAEB0600BDE8F88F91464FF002080025B6E7B9B2002AB9
:2058A0007FD1DDB28D42C3F3062388D81B2B18D01C2B5ED01A2B82D1062D80D18378A3603E
:2058C000C27843EA0223A360027943EA0243A360427943EA0263A36083792373C379237494
:2058E00028E0002D3FF46BAF83781BB3012B7FF466AF8279042A3FF762AF02EB8202511D5A
:205900008D427FF45CAF84F82A30C37804F1300C84F82B304179037943EA0123A385837976
:2059200084F82E30C31D0C30024405339A420CF1060C09D1AB1CA9EB0309B9F1000FFFF619
:205940003EAF7FF462AF8BE713F8040C13F8051C41EA00212CF8061C13F8020C13F8031C48
:2059600041EA00212CF8041C13F8011C0CF8021CDBE7012D02D0192D7FF421AF8378192DC1
:205980006374D7D104F1120200F1180190F804C0C378023043EA0C23884222F8023BF5D179
:2059A000C8E7C3F30A058D42C3F3C3233FF607AF092B7FF404AF002D3FF401AF8378012D8A
:2059C00084F84830B6D0C37A827A42EA0322042AA4F84A20AED802F10C039D42AAD100F1BC
:2059E0000C0104F14C0004F023FCA3E700F0FFFF30B591B0054600F063F84FF6FF73984281
:205A000004D14FF0FF34204611B030BD40220021684604F0E5FC274B1A782AB901221A7091
:205A2000FFF78CFB244B18707DB10720FFF7FEFD58B9214C23780BB9012323702178072058
:205A4000FFF7ECFD237801332370FFF709FE6A46C1B21A4805F065F9FFF702FE08B34FF63A
:205A6000FF73ADF800300F20FFF7F2FD014602A804F0D2FFFFF71CFD0E90FFF707FD0F90CF
:205A8000684605F047FA0446002DBCD0FFF744FD0028B6D0FFF7F6FC0146684605F082FAEC
:205AA000B1E71020FFF7D4FD0146684604F0B4FFD9E700BF05600020066000202D5620008E
:205AC000014B1888704700BF04490020014B1880704700BF0449002013B50021044601916B
:205AE00010B9002002B010BD01AA103005F063F9019B002BF5D0064BA08B1B88834205D0BD
:205B00004FF6FF73C31A58425841EBE70120E9E7044900202DE9F0410E461546044610B985
:205B20000020BDE8F081407E58B104F10807022839460CBF4FF002084FF0080805F0DBF98F
:205B400028B14EB10F49304604F066FF04E0B8F1080FE5D1002EF6D1E07D38B10228214620
:205B600014BF0826022605F0C6F928B145B10549284604F051FF03E0082ED1D1002DF7D1C9
:205B80000120CEE710B620002DE9F041012986B006460F46144603DC002006B0BDE8F081DC
:205BA00003A905F046FA0A2203A904F1100004F03FFB9DF81130002B44D0B51C02AA01A9BD
:205BC00003A805F0F8F89DF81380B8F1000F4CD0029B23B16A7815F8023B03EB0223B8F1E0
:205BE000020FA38332D13249204604F015FF6B78237015F8023B63709DF81580B8F1000F0D
:205C00004DD0019B002B37D06A7815F8023B03EB0223029A9BB2E38302B9A383B8F1020F70
:205C20002DD1234904F1080004F0F6FE6B78237215F8023B6372A81B3B1A8742C4E90E538F
:205C4000AADBAAE7B378F51CA376B7E7B8F1030FD2D105F108021346611E13F8010D9D420D
:205C600001F8010FF9D11546C6E71149204604F0D3FEA4F81C80BFE7A38BE383CEE7B8F1F4
:205C8000030FD8D105F10802134604F1080113F8010D9D4201F8010BF9D11546CBE70449D1
:205CA00004F1080004F0B8FEA4F81E80C3E700BF10B6200070B505460C460A4E102C07D87F
:205CC00074B12B68224668680649BDE8704018472B68102231466868984710B9103CEDE7FD
:205CE000204670BDC6B720002DE9F04F0746144600258FB00791079B1B78B3B1DDF81C8072
:205D000000E0B046464616F8013B0BB1252BF8D1079B98450ED0A8EB03094A463B68079933
:205D20007868984728B14FF0FF3528460FB0BDE8F08F4D4498F80030002BF6D098F8013004
:205D4000002BF2D04FF0000A314611F8012B33462B2A16D00AD8202A16D0232A17D0A2F1D4
:205D6000310008283FD84FF0000918E02D2A04D0302AF4D14AF0100A01E04AF0010A0E4653
:205D8000E2E74AF0060AFAE74AF0020AF7E74AF0080AF4E70A2303FB0929A9F1300933461B
:205DA00016F8012BA2F130010929F3D91A782E2A35D159785A1CA1F13000092828D8002697
:205DC00011781346A1F13000092802F101021AD91A786C2A40F092805A786C2A22D14AF006
:205DE000800A023321E02A2A0AD1D4F800900B46B9F1000F04F10404B8BF4AF0010AD5E7D9
:205E00004FF00009D2E70A2303FB0616303ED7E72A2903D1266802330434D9E713464FF094
:205E2000FF36D5E701334AF0600A1A78642A00F0928000F28580462A00F0AF8071D8252A59
:205E400000F0C08066D8002A3FF46FAF013307930AF4E063B3F5806F00F0568200F2B580C4
:205E6000B3F5807F00F0EA80B3F5407F7FF443AFAF4B1AF4804FAF4A18BF1A460DF133031A
:205E800000211E462068043450EA010C40F07482F61A04BF302203F8012C4FF0780208BF83
:205EA00003F1FF3303F8012C4FF0300208BF012603F8022C23220336B1458CBFA9EB0609AA
:205EC0004FF000091AF0010AA3F1030803F8032C06D149463846FFF7EDFE00287FF423AF6A
:205EE0003B68324641467868984700287FF41BAF3544BAF1000F00F03682ACE1682A94D17D
:205F00005A78682A02D14AF0200A6AE701334AF0400A8AE7412A4CD0452A97D14AF4424A44
:205F200094E7582A33D004D8472A8FD14AF4A13A8CE7612A3AD0632A88D14AF4A06A85E7F9
:205F40006E2A3CD00AD8662A24D029D3672A2AD0692A7FF47BAF4AF4245A77E7732A2BD0CE
:205F600007D86F2A10D0702A7FF470AF4AF4407A6CE7752A05D0782A7FF468AF4AF4C85A52
:205F800064E74AF4106A61E74AF4885A5EE74AF4B24A5BE74AF4007A58E74AF4844A55E796
:205FA0004AF4024A52E74AF4813A4FE74AF4C13A4CE74AF4E13A49E74AF4806A46E74AF467
:205FC000E06A43E74AF4C06A40E7B3F5C06F2BD0B3F5E06F00F0DF81B3F5A06F7FF48BAE42
:205FE000B9F1010F38BF4FF0010923681AF0010604F104048DF8203009F1FF3807D14146A9
:206000003846FFF757FE00287FF48DAE45443B68012208A97868984700287FF484AE002E27
:2060200000F0A181414617E13B68012242497868984700287FF477AE01355CE6002EACBFEE
:206040002AF0100A01261AF400520AF0E003069243D0402B3AD009D8002B3AD0202B11D046
:2060600000220023CDE90023002319E0602B30D0802BF5D1073424F0070303F10804D3E9D5
:20608000002303E094F90020D3170434002A73F10001E7DA524263EB4303CDE900230123B6
:2060A00005930AF4C053B3F5805F00F0EB80B3F5C05F00F0EC80B3F5006F40F00381DDE9A1
:2060C00000230DF1360BCDE9022348E0B4F90020DAE722680434D317D8E7402B1FD009D827
:2060E000FBB1202B14D00023002205930023CDE90023D6E7602B14D0802BF4D1073424F001
:20610000070303F10804D3E90023CDE9002304E022780023CDE900230434069BC0E7228819
:20612000F7E72368002219460434CDE90012F4E7E6B72000F7B7200019B82000DDE9020155
:206140000A22002303F0BAFEDDE9020130320BF8012D00230A2203F0B1FECDE90201DDE979
:2061600002231343EAD10DF13603A3EB0B030293029B41F608029E4288BFF61A41F208032E
:206180000AEA020298BF00269A4202D1002E08BF012641F60801029B8A42334440F0968059
:2061A000DDE900120A4300F091807D491AF4804F7C4A08BF0A464FF002080092069A82B18B
:2061C000059A002A40F087800AF00602022A00F08780062A744A009904BF11464FF00108B1
:2061E0000091434499458CBFA9EB03094FF000091AF00103059304D11AF0100F74D04E44FC
:206200009946D7E90030B8F1000F05D042460099984700287FF487ADB246029B1D44BAF1B2
:20622000100FD7E9003066D8BAF1000F05D052465E49984700287FF476AD3B68029A5946C8
:2062400078684544984700287FF46DAD059B3544002B00F0888049463846FFF72BFD0028B2
:2062600000F081805FE502F0070130310BF8011DD10841EA4371D8080A46034652EA0301FC
:20628000F1D170E7DDE900230DF1360BF6E7484B1AF4804F0DF1360B464918BF1946DDE9A6
:2062A000002352EA03003FF45EAF02F00F00085C4FEA131C0BF8010D100940EA0370024660
:2062C0006346EEE70DF1360B002350E74FF00008CDF8008072E74FF00108374A009280E700
:2062E0004FF00108354AF9E749463846FFF7E2FC002886D017E510222C49984700287FF47B
:2063000012ADAAF1100A8AE7D4F800B00434BBF1000F2CD0D84698F8003008F1010223BB75
:20632000A8EB0B08002E02DBB04528BFB046C1458CBFA9EB08094FF000091AF0010606D1B4
:2063400049463846FFF7B6FC00287FF4ECAC3B68424659467868984700287FF4E4AC454418
:20636000002E7FF478AF4D44C5E49046D3E7DFF850B04FF00608D5E700F00F0C12F80CC0CA
:206380004FEA111E03F801CD4FEA101C4CEA017C6046714678E5236804341D60ABE400BF6C
:2063A00008B820000BB8200010B82000D6B72000E6B72000F7B720000EB820005FB72000DE
:2063C00012B820000FB407B504AA52F8041B04480192FFF789FC03B05DF804EB04B0704781
:2063E0006845002008B5024B5B6A9847012008BD98B4200013B50A4B01A918209B6A9847ED
:2064000001280AD00198074B8028A8BF80201B6804469847201A02B010BD0020FBE700BFB9
:2064200098B4200060B5200038B54FF6FF70FFF74DFB822100221A48FEF7B4FB00F076FEAD
:2064400000F08CFE002000F0E5FDFF220024154B154D1A70154B1C601C71154B1C60FCF707
:20646000D1F8144B144918602346144C30F8132025F81320D20302F5F42202F5907292FB43
:20648000F4F241F8232001330C2BEFD10C490D4804F0C2FA4FF400620B4B1A6038BD00BFEC
:2064A00070450020346100201C6100207461002020570020544E00203861002040420F001D
:2064C00010B62000925E00204C4E002040F2573273B503880446934266D0B3F5567F05D2F5
:2064E000002B48D000230320238062E040F25E32934203D040F286329342F3D1314804F0D4
:2065000004F9002854D0304B1B68FBB12F4B1B68002B54D02E4804F0CDFD0546B0B98DF8CF
:2065200006000DF107010DF1060001F0A7FF00280CDD2B462A460121254800F099FD28B1D4
:206540009DF8073003749DF80630C3731F4E3568002D34D0FEF7F2FD3368A5EB95059B0870
:20656000B0FBF3F101FB13012944164804F0B2F840F2863313E00C21124804F0ABF8124BBA
:206580001B6873B1134B1B68002BBFD1FEF7D6FDC0F30A010B4804F09DF840F25E332380F0
:2065A000ACE740F257332380064804F0AEF810B9002002B070BD034804F095F8DFE74FF464
:2065C0000061D2E7784D0020584E00204C4E002020B620005C4E00202DE9F04105461020BA
:2065E0000E46FFF735F8214B04461B683BB931462846BDE8F0410123042204F04BBA1C4994
:2066000004F00DFA80BB1B4B07201A78013212F0FF0208BF01221A701978FEF7FFFF0121D5
:206620000820FEF7FBFF01210E20FEF7F7FF12490F20FFF701F80620FEF7F8FF0F4BC7B2AA
:20664000002F5B6808BF08279847B0F10008CEDB33462A463946204600F00AFD0028C6D09E
:2066600080F80F80BDE8F081054CDCE7584E002010B62000096000206864002060B5200093
:2066800018B620007FB5FBF7BDFF00283FD0214C02A9A66A1820B047002838D16946042098
:2066A000B047002833D10099E56A21F0030141F0040100910420A84748BB01A90520B04717
:2066C00028BB0199052021F001010191A847F0B90F210120A847D0B9236B042203A90C2086
:2066E0009847A0B9FFF7A0FE00F0B0FD00F064FF0421094804F04FF80821084804F04BF87D
:20670000FEF71CFD0122064B1870064B1A6004B070BD00BF98B42000B8610020BB61002023
:2067200009600020604E00200D4B07B59B689847002812DB0720FEF779FF4FF6FF739842D2
:2067400004D0FEF7E7FF40B9FFF708F8054B9B68019303B05DF804EB184703B05DF804FB57
:2067600060B5200088B5200037B50D4B1B68A3B100F03CFC054680B10024FEF705FF02A801
:20678000012100F8014DFEF70FFF291D1020FEF753FF21460348FFF71FFF03B030BD00BFAC
:2067A000584E0020B56A200038B50C4B1C68012C11D10B4B1D6875B929460A481C60FEF7C2
:2067C000FBF929460848FEF7F7F929460748FEF7F3F9204638BD0024FBE700BF604E002094
:2067E000684E002070450020884500207C4500202DE9F0410F4B1D68D5B90F4B1B68BBB123
:206800000E4F3968A1B10A26B1FBF6F40C1BFEF795FC3A682B46B2FBF6F2B0FBF2F101FB83
:206820001201074A21440748BDE8F041FEF74EB8BDE8F0815C4E0020584E0020504E00200B
:2068400069672000184E0020034B186010B90348FEF746B8FFF7CCBF504E0020184E002030
:20686000054B1B683BB9054A126822B1044A19460448FEF72BB870475C4E0020584E00209D
:2068800069672000184E0020044B1A68012A04D1002203481A60FEF7A7B97047584E0020F8
:2068A0007C4500202DE9F04F0388B7B00646DBB140F29232934240F0E780822917D1754F1F
:2068C000754D384603F094FF0FFA80F8B8F1FF3F0FD1724D724F284603F08AFF00B2431C2F
:2068E00040F0BE80FDF76EFC40F2923333800120CDE0902404FB085402AAD4F888102046CF
:20690000FFF742F910F0FF0F3FD09DF820309DF818A0022B0ABFBAFA8AFB4FF0000B4FEA45
:206920005B1BBAF1010F12D14FF0900909FB08592046B9F88810FEF737FEB9F88C100420BC
:20694000FEF76CFE99F88E105046FEF767FE9DF81830032B14D14FF0900909FB0859204626
:20696000B9F88810FEF720FEB9F88C100420FEF755FE99F88E100120FEF750FEFDF7DCFAA5
:20698000BAF1010F05D1FFF7CFFE384603F022FF97E7BBF1000FF8D090210023012201FB1D
:2069A0000851CDE90032204622AB12AAD1F8881004F060FC0028E8D000F018FB04460028A1
:2069C00040D114A9374804F027F89DF89820364B1A70002CD9D0211D14A804F020F80028FC
:2069E000D3D0902303FB0858249BD8F880209A4201D0FFF749FF9DF898301F2B01D9FFF752
:206A000043FF9DF8D030002BBFD0284CBDF8D23022889A421DD0BDF8D220042AB5D835A907
:206A2000234803F005FC4FF0FF33BDF8D220B3FBF2F353435B42B3FBF2F102FB11332280A5
:206A40006380A2E7011D174803F0E9FF0028B8D0C1E735A9164803F0B9FB0028DBD194E7E8
:206A600057F820402068FEF7FDFBD4E90101237BA27B04F00FF8204600F048FB00F06EFB8B
:206A8000284603F0A7FE26E700230380032037B0BDE8F08FB8610020C0610020BB61002059
:206AA00098610020925E002008600020846100206C61002038B50C4615461020FEF7C8FDAF
:206AC0002A462146FEF7ECFD022C1DD11020FEF7BFFD044600F08AFA80B91149114803F067
:206AE0009EFFA8B90F4800F095FA0F4B0F4A1B7801331370BDE83840FFF7B2BE21460430A7
:206B000003F08DFF0028E8D1BDE83840FFF770BE074B1B68002BF7D1FFF7B6FEF4E700BFC8
:206B200010B62000925E00200860002034610020686100202DE9F04F0388ADB007463BB1C3
:206B4000B3F5487F00F0A980002303203B80AAE0AD4A0121AD481371136003F0BBFDFBF780
:206B60004BFEAB4B1860DFF8F482C1463FE0FBF743FEDFF8ECB282469BF80030A44EA54CD5
:206B80001BB13368C31A802B13D9A34B0693FEF7D5FA2CAB00F00300184410F8982CE36A90
:206BA0001146012003929847039AC6F800A08BF80020236A9847E669B047002876D1A3691E
:206BC000984770B1FBF746FE6FF4A37A0590B04700286BD1FBF73EFE059BAAEB0303C342A1
:206BE000F5D4D9F80030002B4DD0636A9847D8F80030002BA8D1894B1D68002DB7D0A3E79C
:206C00000DF1600C9C44BCF812C0A5E0BDF8AA20042AE6D82BA9824803F00AFB4FF0FF33AD
:206C2000BDF8AA207F49B3FBF2F353435B42B3FBF2F002FB10330A804B80ADE000F0CEFBDC
:206C40009DF88E60042ECCD8BDF88C109DF88B0000F034FB06230DF1960203FB06260390CF
:206C600024AD0635AE4200F09C8035F8043C15F8021C019335F8063C0122009303986A4B6B
:206C800000F0BCFBEDE7654B1B68002BAFD15F4803F029FD4FF448733B805C4803F035FD59
:206CA00000287FF460AF2DB0BDE8F08F5F4E23698021304698470028C6F8880091DD236B90
:206CC000042205A90C209847FBF7C4FDDDF814B0BBEB00034FF6FF7048BF5B4283428CBF78
:206CE0000020012000283FF47CAF002301930DF11303009308AA18ABD6F888104B4804F00D
:206D0000B9FA00283FF46DAF3F4B1AAA92E8030083E803009DF8703045495A1C0A709DF8C8
:206D20003120012A3FF45DAF48F2A512BDF83E1091427FF456AFFF2B3FF453AF3D4B9DF8DD
:206D400071001E683C4ADFF81CA13C496B0000287FF456AF36F815C022F815C0D35ADB0395
:206D600003F5F42303F5907393FBF1F34AF8253001350C2DEAD19DF8A850002D7FF446AFB4
:206D8000254B2CA941F8943D0422254803F050FA0422244B1A805D809DF88A30002B7FF4DB
:206DA0004DAF234B1B781F2B3FF61BAF0AA800F0DBF800283FF415AF0AA800F02BF9BDF87E
:206DC0003E00FEF783FEDAF808000F49ABEB000001F084FA01239DF83120C9F80030184B6A
:206DE0001A600023174A1360174A1360174A1360174A1360174A1360FFF7FAFC164A13680B
:206E000001331360EDE600BF74610020384E0020744D002098B420000F191A145C4E002031
:206E20006C6100208461002018B62000884D002034610020544E00201C61002040420F00D8
:206E4000644E0020806100207C610020686100208861002070610020484E0020584E002003
:206E6000076000203861002040F237322DE9F3410388044693423AD0B3F5507F06D0002BC1
:206E80003CD1214EDFF89C80204F21E01E4B1B6833BBFFF7C9FAF4E7D8F8003013B348F2A5
:206EA000A510FEF713FE042238680DEB02010190174803F0BDF90422164B1A805D8001239B
:206EC0003360154B1D70FBF7C5FC144901F006FA3568002DE0D001F0CBF94FF45073238059
:206EE00001200EE00E4A138040F2373323800C48FFF720FE0128C4D8002002E00023038084
:206F0000032002B0BDE8F081584E00201BB820006C61002084610020346100207461002031
:206F20009A5E00205C4E0020014803F07BBC00BF6C4E002038B5054600F028FE10B1002430
:206F4000204638BD074803F06DFC04460028F6D02946201D03F063FD0028F1D1204603F0B1
:206F60008BFCF2E76C4E002038B50546FFF7E2FF044670BB00F010FE40B3184803F08FFC84
:206F8000044608B33C22002103F02AFA082104F1340003F000FC2946201D03F03DFD1049E3
:206FA000284603F03CFDB0B90E49284603F037FD003018BF012001232073E38121460A48E6
:206FC00003F04DFC0023A36300F008FE2846FDF73BF8204638BD0120EDE700BF94450020B9
:206FE00020B6200018B620006C4E002008B500F0CDFD08B1002008BD054803F013FC002847
:20700000F8D0437B002BF6D103F036FCF7E700BF6C4E002038B5044600F0B8FD08B10020A7
:2070200038BD124B1B68002BF9D1FFF7DFFF0546A4B12046FFF798FF04460028EFD0854227
:207040000AD001234FF4C0606373FFF7FDFB55B921462846FDF754F80120E1E70028FBD00C
:207060002046FFF7F1FB00236B73F1E75C4E00202DE9F74F064689469346019300F086FDCE
:20708000804628B14FF0000A504603B0BDE8F08F3046FFF769FF04460028F3D000F1340766
:2070A000384603F08CFB05B26B1CEBD0164803F0F6FB82460028E5D003F0CAFAFEF79AF8BA
:2070C000CAF80000B8B10322019B04EB8505CAF804B0CAF808308AF80E208AF80C808AF89B
:2070E0000D903846C5F814A003F05BFB21463046FCF7D6FFC8E701905146034803F0E3FB23
:20710000019A9246C0E700BFA045002010B5044640B10068FEF790F82146BDE81040024806
:2071200003F0D1BB10BD00BFA045002070B500F02DFD28B9084803F075FB0125044604B93F
:2071400070BD204603F098FB0646204603F0E7FFE5813446F3E700BF6C4E0020F8B500F09B
:2071600015FD30B9124803F05DFB0446104D114E04B9F8BD204603F07FFBA3890746ABB947
:20718000637C9BB9204603F0BAFF78B100F004FD60B12146284603F04FFB00F01FFD2046FB
:2071A00003F0BDFF2146304603F08DFB3C46DFE76C4E00209445002070B505460E4600F0F9
:2071C000E5FC08B1002070BD0B4803F02BFB04460028F7D0237B53B9A37C43B93146204681
:2071E00003F0B6FF18B1002DEDD02C60EBE7204603F042FBEBE700BF6C4E002070B5054665
:2072000000F0C4FC48B90F49284603F008FC06460D4803F007FB044600B970BDE37B2BB100
:20722000637C3BB916B1E37B013BE373204603F023FBF0E7211D284603F0F1FB0028F2D100
:20724000F4E700BF18B620006C4E002008B50A4803F0E5FA094803F012FB094803F00FFB4C
:207260000848FFF781FE084B18600848FFF77CFE074B186008BD00BF6C4E0020944500209D
:20728000A045002020B620009061002018B620008C61002010B5044600F078FC08B100209B
:2072A00010BD054803F0BEFA0028F8D08388A342F6D003F0E1FAF7E7BC560020F8B507468B
:2072C0000D4611B900242046F8BDFFF7E3FF06460028F7D100F060FC0028F3D00E4803F0BE
:2072E000DEFA0446A8B14FF0FF33B3FBF5F36B435B42B3FBF5F105FB11338780C580038119
:207300000C30C4E9036003F08AFA2146034803F0A6FA00F063FCD6E7B8450020BC5600200A
:2073200073B50C46054610B9002002B070BD0029FAD0CA8983889A42F6D100F02DFC00288B
:20734000F2D0A11D6846267D03F066FB104B21461A682869944204BF00221A6003F06CFAA5
:2073600021460C4803F0AFFA00F038FCF2070CD56846FFF7F9FD40B1437C013B4374730701
:207380005EBF837C03F1FF3383740120CDE700BF20570020AC45002010B5044620B9002070
:2073A00010BD2046FFF7BCFF206903F03BFA01460028F6D100F0F0FB0028F0D0214605488B
:2073C00003F081FA0448214603F036FA00F006FC0120E5E7B8450020BC56002010B5064C24
:2073E000204603F01FFA08B9012003E0FFF7D4FF0028F5D110BD00BFBC5600202DE9F04794
:207400008A4691461F46BDF82050BDF82480064618B900242046BDE8F087C388AB42F8D916
:20742000B8F10F0FF5D8294603F017FF00F0B4FB0028EED01B4803F032FA044610B900F036
:20744000CDFBE7E70146306903F009FA164A84F814A0136884F81590A380591CB388116050
:20746000E381002311492582A51D9F4218BF3946A3612846A4F8128003F0CEFA00F0AEFB97
:20748000237DDA07C6D52846FFF76EFD0028C1D0437C01334374237D5B075EBF837C01334C
:2074A0008374B7E7AC4500207850002010B620002DE9F84F07468846914600F067FB04466D
:2074C000002873D13B4803F0ADF9254682462646BAF1000F0CD1B8F1000F01D0A8F8006065
:2074E000B9F1000F01D0C9F800402846BDE8F88FBAF8082097F804B0BAF8063002FB0BFB5F
:207500009BFBF3F2396803FB12B2B1FBF3FB03FB1B1B5A4492FBF3FB03FB1B2BDAF8100080
:207520001FFA8BFB03F07EF920B9504603F0A4F98246CDE7038A5B4597BFBAF80620A3EBDE
:207540000B03A2EB0B029B189BB23DB39E4229D818D12A7D037D82EA0301C90715D4B0F8D1
:207560000EC0E9898C4512D364B913F0020F234614BF0446002412F0020F18BF2C46002BB3
:2075800018BF1D4603F078F9CEE7D907ECD50CB10546F7E78542F5D00346ECE72C461E4693
:2075A0000546EFE705461E460024EBE70024254696E700BFBC56002008B500F0EDFA58B16B
:2075C000064803F05CF9064803F059F9054803F026F900F003FB012008BD00BFAC4500207F
:2075E000B8450020BC5600202DE9F74300F0CEFA002851D12A4803F015F92A4D06462B6821
:20760000002B07DB284A29492948FEF7DBFE2948FEF7D8FE244FDFF89480DFF894906EB97E
:207620002B68002B38DB204A20492148FEF7CAFE214803B0BDE8F043FEF7C4BE306903F089
:20764000F1F82B680446002B09DB3A4641464846FEF7B8FEF288B1881848FEF7B3FE24B97F
:20766000304603F009F90646D9E72B68002B0EDB3A4641464846FEF7A5FE607B238A627D58
:20768000217D0190608A00900D48FEF79BFE204603F0F2F80446E2E703B0BDE8F08300BF7E
:2076A000BC5600208449002024B820002FB8200052B6200033B82000BDB8200055B82000B3
:2076C00073B8200073B50D4614460646FBF7C2F8AA1EA84222442CBF00230123954294BF1E
:2076E00000210121994203D1904234BF002301232C443BB900930122074B21463046FDF74F
:207700001FF938B1FBF7A6F8001B0028FADB002002B070BD0120FBE7297C200013B50446E7
:207720000020237D0190DB0705D40020134B019A1A6002B010BD637D013B012B05D8104BAB
:2077400021461868019003F003FD637D022BEDD00028EBD1A01DFFF7EDFB2146019003F08A
:20776000F7FC0028E2D1074B019A1B689A42DCD1214601A8FFF720FDD8E700BF2457002006
:20778000906100208C61002040F229222DE9F04FAD4DCBB02B88074693426BD1DFF8FC821E
:2077A000AA4EFBF757F80446FAF708FFD8F80030B2681344E41AC442F3D4DFF8DC82DFF806
:2077C000A4B298F80000DBF808309847A04A9F4E1368DFF8C89201331360D9F80020B368A3
:2077E000DFF884A213449B4A8AF800001360FAF7D9FEFAF7CBFEFAF7D5FE98F8003004460B
:207800000393FAF7C3FE039BDFF8548218446043C003914B00F5F42000F5907090FBF3F0CB
:20782000B36A984294BFC8F80000C8F80030DBF8243098479AF80030002B40F08681874B52
:207840001B78002B40F0BE80D8F80020B468D9F800A01444D6F81090FAF7BCFE023C09EBDC
:207860000402121A51463846FFF72CFFD8B140F2492358E140F24922934240F0B080DFF897
:207880001C82724E764FFAF7E5FF0446FAF7A2FE3A68B368D8F800101344326913440B44E0
:2078A000E31AC342EFD46F4EDFF8A081336A9847DFF8ACA1DFF89C91B769B847A0B9FAF741
:2078C000C9FFDAF80040D8F8103083462344D8F81C401C44FAF78AFED9F800301C44ABEB92
:2078E0000404241A002CE7DBFAF7B4FF0446FAF77DFEDFF85881041BB84730B1FAF7AAFFB1
:20790000D8F82430E31AC342F6D4736A9847336980212AA89847011E534E40F31A81534CA0
:2079200027681FB17B7B1F1C18BF0127504B2AA81A780DF11703019316AB009306AB00F018
:207940004BFD002800F00781002F39D0BDF95820DFF84C81D303002AACBF03F5F423A3F523
:20796000F4233D4A434FACBF03F59073A3F5907393FBF2F23968D8F800303748591A3E4B48
:20798000DFF820C19B899B08DB0303F5F42303F5907393FBF0F0904280F2CD80CCF80000BD
:2079A000DCF8002089B2206800F07EFE98E8030087E80300FAF720FF304B1860FEF718FFA0
:2079C000002333702E4B10211B68186802F0CDFF2C4B1A68244B197802F026FE13E0002B49
:2079E0002ED1294802F0EBFE284B1860013027D0DFF88C90D9F8003013B11868002853D1A5
:207A00000522194B1A701E4C1E4A216817480B7B126801330B73144B00681B788B7303F09A
:207A2000DFFB10F0FF0F08D1184B21681A68184B154843F8221002F0B4FE1648FDF7D4F828
:207A4000002303202B8070E0AA5E00203861002080610020C057002040420F00CE600020ED
:207A6000BC57002098B42000CF60002024570020D1600020885700201C610020946100207B
:207A80002857002020570020BB610020305700209861002070450020D06000202C570020EC
:207AA0007461002034570020FDF7F4FB2B4CD9F800302060186802F054FF294B294A19681E
:207AC000294B0E7B10701E702368284E93F802C0904686F800C0264E3668B1422646254C57
:207AE00026D1D9F80020C1B2127C184600F072FD206023684BB3204B98F8001030685B6871
:207B0000984710BB1D4B1E681D4B9C68FAF756FDA21E121A31463846FFF7D4FD00283FF41A
:207B20004CAE40F2292301202B804BB0BDE8F08F01232360DDE7134893FBF0F39342ACBF6B
:207B4000CCF80030CCF800202AE704220E4B1A7038E77FF435AF022333E700BF94570020B4
:207B600024570020D0600020CE600020D160002090610020C445002098B420002C57002032
:207B800038610020C0BDF0FFCF600020014B1868704700BFB857002070B50D4C23680BB13B
:207BA000002070BD01220B4D0B4E2A60316829B1FAF750FE336843B9FAF74CFE2368002BE0
:207BC000EED1012020602B60EBE7FAF7C7FFF1E7B8570020B4570020B05700200022014B6A
:207BE0001A607047B857002030B50D4D04796A882B88544394FBF3F203FB12420468B4FB4C
:207C0000F3F003FB1040104490FBF3F203FB1202114491FBF3F203FB1211024B585C30BD88
:207C2000846100206C61002040F21B422DE9F04F994E87B033888046934275D004D853B1D5
:207C40000023032033805AE040F21F4293427ED0B3F58E6FF4D1914B1B68002BF0D0904CAB
:207C6000206808B38F4B1B68F3B901218E4A8F4D11608F4A1360FFF751FD286050B92368C5
:207C80001B7D9A0706D48B4B186818B12060FFF745FD28602B68884A002B33D123681B7DBB
:207CA00013F002032ED11360844D854C2A6842B194E80300834B83E80300FAF79DFD824B10
:207CC00018602868814D002840F02D827D4A23681268E96A9A1A4FF41943B3FBF1F164233E
:207CE0004B439A4240F21F82794B1860FEF7CCFD00226D4B01201A604FF48E63338007B03A
:207D0000BDE8F08F1368734FABB100231360724B3978DB6A012098472B689BB100226F4BA2
:207D20001A8040F21B4333804046FFF72DFD0128BAD80020E3E723686148997CFFF754FF89
:207D40003870E4E7664A138040F21F43338040F20637DFF88C915D4CB9F80050CA46BD420A
:207D600036D1604FFAF776FD0546FAF733FC3B68E2681344ED1AC542F4D4574D2B6A98474C
:207D8000AB6902939847EB690393002840F05A829847002840F05682524F029B984710F011
:207DA000FF0F40F04F82FAF755FDE368A269834603EB0209FAF71AFC3B684B44ABEB030B7C
:207DC000ABEB000BBBF1000FE7DB6B6A9847D6E040F292339D424ED1DFF83091424FFAF70C
:207DE00039FD0546FAF7EAFBD9F80020636913443A681344EB1AC342F1D43C4A364C1088B0
:207E0000A3689847636A9847394B1868D0F8881003F069FA284B18603648FFF78BF80446E6
:207E2000E8B1437BDBB1264A264B156819686D1A92E8030083E80300FAF7DEFC224B2E495F
:207E400018602E4B20461A68194B52421A600B6801330B60A9B200F027FCFEF7C9FC28482D
:207E600002F09FFC002C00F0F0801B4B05A99B6A0A209847E9E05DB9214802F0A0FC214B85
:207E800000B21880431C43D11F4A1368013313600023AAF8003007E7A65E0020584E0020CD
:207EA00020570020B4570020B0570020285700203457002014570020185700205C4E0020AB
:207EC0007461002088570020946100203861002090570020BE61002098B42000AA5E002006
:207EE000A85E00202C5700209C570020105700201C570020AC5E00206861002038570020CA
:207F0000B8610020A45E00208457002098570020A949A2680B6809681344A84A02911360CD
:207F2000A74AD4F80CB013609022A64B02FB0030A54B1860FAF74EFBABF10202121A02997C
:207F40004046FFF7BFFB00283FF417AFA9F80070EFE6FAF77FFCA169E368DBF800200B44E1
:207F6000A16A0B441344C01A002803DA029B98470028EED16B6A9847039B984730B9934B16
:207F80001A68002A84D000221A6081E7DFF838B22B69DBF80090802148469847AB6AC9F841
:207FA000880004A909209847DBF80030884903F1800203C982E80300049AD3F88810A3F865
:207FC0008C20844A1846127883F88E20824AFDF7DBFD00284ADC0020804B18600293FAF747
:207FE000E1FAFAF7D3FAFAF7DDFADBF800208146D2F888B0FAF7CAFA584409FB00F0C0035C
:20800000774900F5F42000F5907090FBF1F0754AA16A029B884294BF106011601968934677
:2080200039B16D4A127C012A03D9032A1CBF00221A601B6863B16C496C4802F0F0FC18B3BD
:2080400069496B4802F0EBFC28B36A48FCF7CCFD9024694BB3F90000684B1A685F4B196825
:20806000584B04FB003002F0D4FA88E75A48FDF733FD0028AFD05D4A5D495748FDF74AFD6B
:20808000003018BF0120A7E75D49584802F0C7FC0028D5D1D9E75B4A136801331360474B48
:2080A00019683B68C91A584B19604B4BDA7C002A3FF4B2AE4A4A002902FB01F2BEBF4FF487
:2080C0000041A2F5804292FBF1F24FF00009A6BF02F5804242F3CF3212B29B7E8021CDE9C6
:2080E00000294A48424A00F027F9494B484518607FF792AE81B26B6844489847DBF8002076
:2081000064693D681444FAF759FAA21E121A29464046FFF7D7FA00283FF46FAE40F292333A
:20812000AAF8003005E6354F0023B946DFF8ECA0ADF81430386838B1037D03F00503052B5C
:2081400002D10630FFF75AF8DAF80030002B69D0D9F80030002B65D001230022ADF81430D8
:208160002C4B1A602C4A136801331360BDF814302268DFF8ACB0D218DBF800002260EA6A2D
:2081800028BF217902FB030228BF0131104628BF2171029200F006FB0023029ACBF800303D
:2081A000054B024419681868104418604046FFF789FA0028BED09BE52C5700203C570020D1
:2081C0009C570020C06100201C5700208457002074610020BE6100204057002080570020DB
:2081E00040420F0098570020686400209C5E0020AC5E002070450020A45E00202057002021
:2082000010B620007C610020385700204E6000201057002014570020AC570020185700203A
:20822000345700200D4A05A90D48FFF741F9C9F8000018B90123ADF8143097E70022094B76
:208240001A6093E7FAF706FB8346FAF7CFF9064FABEB00003860DFF814B087E614570020A0
:2082600074610020AC5700209C5700202C57002073B5144E144D34462A460DF106013046E0
:20828000FFF716F9114B186010B90123ADF80630BDF8061033685B1828BF227923600C4B08
:2082A00024BF01322271DA6A0A4B4A4319681868104418600848FFF705FA0028DCD002B057
:2082C00070BD00BF746100201457002020570020386100202C570020A057002038B50E4BE2
:2082E0000E4C186003C984E8030002F03CF90546BFF35F8F94E80300094B83E80300FAF72D
:208300007BFA084B1860BFF35F8F284602F02FF90022054B1A6038BD2C570020746100207C
:20832000885700209461002020570020014B33F810007047B45E00202DE9F0410E46A4B033
:2083400017469846054628B94FF0FF34204624B0BDE8F0811E4C1E220021204602F040F899
:2083600002230122A3836282A4F80E804FBBE28201236A46A3820021164802F017FD6846E7
:2083800002F0C8FD044632460021284602F028F85022002110A802F023F8BDF9A83010AA23
:2083A000ADF840302B9B311B28198DF8423002F07DFB0028C8DB04442946684602F0F2FDE3
:2083C000C4E700233946E382684602F025FBCFE7B45E00202D8320002DE9F3478146DDE996
:2083E0000A76884692461D461BB9002002B0BDE8F0870029F9DB1A46FDF7C6FB0228F4DD25
:20840000C4B206B13470AB7E5345EED12846FDF763FB0028E9D06A4600212846FDF77AFBC2
:208420000028E2D01349684602F0F9FAA8B1DFB9AB7D5BB1A8EB04013A46C9B209EB0400C3
:20844000FDF7B8F9431CD0D02044C4B21EB13378FA78134433702046C8E70749684602F0B3
:20846000DEFA0028E3D1C0E750220021384601F0B7FFDDE76864002010B62000F0B595B069
:2084800007460E46FDF780F850220021684601F0A7FFFDF70DF8044602F0B7FA6A4601461A
:2084A000204602F035FB051E03DA4FF0FF3015B0F0BDFCF7EBFF284480B2FCF7DDFF02F018
:2084C000A4FA2C4401466A46204602F085FB051EEBDBFCF7DBFF284480B2FCF7CDFF02F0BA
:2084E00094FA2C4401466A46204602F097FB051EDBDBFCF7CBFF284480B2FCF7BDFF02F0C8
:2085000084FA2C4401466A46204602F01AFB041ECBDBFCF7BBFF204480B2FCF7ADFFFCF76C
:20852000B5FFADF80400FCF7C3FF0446FCF7C0FF0546FCF7ABFF29460246A01C01F0EEFEF5
:20854000FCF7A4FF023080B2FCF796FFFCF7B0FF044602F05AFA6A460146204602F0C8FA56
:208560000028A2DB0220FCF7D7FFFCF78BFF044602F04BFA6A460146204602F0ADFA00284F
:2085800093DB00210E20FDF749F801210920FDF745F80D490F20FDF74FF80C491020FDF734
:2085A0004BF80B4B5B6898470028FFF67EAF17B1FCF772FF38701EB1FCF76EFF0230307061
:2085C000FCF7A0FF73E700BF6864002020B6200060B5200030B5134604460D4695B0094967
:2085E00002AA03C982E80300074AE91A1278E0188DF810206A4602F08BFA013018BF0120BB
:2086000015B030BD7461002034610020F8B515461C46A0FB0123CF1700FB073329685618BB
:2086200043EBE1771E4A00233046394601F0F6FB1B4A1C4B02FB10622A60B4F9002002447A
:20864000D003002AABBF00F5F420A0F5F42000F59070A0F5907090FBF3F00028B8BF4FF427
:20866000004103FB00F3B9BFA3F5804393FBF1F303F58043C3F3CF33B8BF9BB292B2D31A1B
:20868000238080EAE073A3EBE073B3F5807F05DD0028D4BF6FF0FF004FF48070F8BD00BF50
:2086A0000040420F40420F002DE9F843304B16461A68304C8242304D15D0186000232F4A38
:2086C00013602F4A137023602B602E4B1A68B242D4BF1A601E602C4B1A68B242ACBF1A60D1
:2086E0001E60BDE8F8832A68284B1144DA8A284B206893FBF2F3B1EB830F2960304435D37D
:20870000244B1F4FDA6ADFF898904A432249D31780FB010101F082FB3B780BB989F8003044
:208720001E4A99F80010072B42F82100904613D801333B70002299F800303978013303F048
:20874000070389F8003013468A420ADB93FBF1F30A4A13600023B6E74FF4F050FEF774F877
:20876000E8E758F8220001320344EDE72060ACE790570020EC570020C4570020F05700204B
:20878000D360002088610020706100201C61002040420F00386100200040420FCC570020D1
:2087A000D260002038B54FF4804200231049E1FB0023D50B45EA43450E4B1C686CB10E4B10
:2087C0001B6893B10D4B0E4A21462846FFF71EFF04460C4A1368034413600B4B0B4A0C4965
:2087E0002846FFF713FF204438BD1C46F5E700BF40420F00F057002090570020D45E00205C
:20880000F4570020EC570020D25E0020C8570020002FFCFF024B1B680BB15B68184770476C
:20882000F857002070B514460D4D0E4E28603180FCF7AAFE31882868FCF7B6FE74B1214644
:208840001020FCF7F9FE08490F20FCF7F5FE0021064B08469B689847012070BD0449EFE785
:208860000464002000640020686400206CB5200010B62000014B1860704700BFF857002030
:208880000022014B1A607047F85700202DE9FF41012407463D480D46FFF7ECFF3C4B6FF063
:2088A00006011C603B4B0620DB6A98473A4B1B6998473B8803B3B3F59A7F60D1882D62D12A
:2088C000364801F022FF00283DD03548FDF77AFD344801F0A7FF344EDFF8F08030603568E2
:2088E00015BB29463148FCF767F931482946FCF763F93D80022014E02E48FDF763FD2E4922
:208900002E4802F089F84FF4F041244801F0E2FE4FF480712A4801F0DDFE4FF49A730120DA
