:020000040020DA
:20200000F86C002009242000D3A32000D1A32000D1A32000D1A32000D1A320000000000009
:20202000000000000000000000000000D1A32000D1A3200000000000D1A320006FA42000B1
:2020400081A4200087A420008DA4200093A420000000000075A420007BA42000D1A320003C
:20206000D1A320000000000000000000000000000000000000000000D1A320000000000038
:202080000000000000000000D1A32000D1A32000D1A32000D1A32000D1A32000D1A32000C8
:2020A000D1A32000D1A32000D1A32000D1A32000D1A32000D1A32000D1A32000D1A3200080
:2020C000D1A32000D1A32000D1A32000D1A32000D1A320000000000000000000000000001C
:2020E0000000000000000000000000000000000000000000000000007D3920008D39200024
:202100000000000000000000000000000000000000000000000000000000000000000000BF
:2021200000000000000000000000000000000000000000000000000000000000000000009F
:2021400000000000000000000000000000000000000000000000000000000000000000007F
:2021600000000000000000000000000000000000000000000000000000000000000000005F
:2021800000000000000000000000000000000000000000000000000000000000000000003F
:2021A00000000000000000000000000000000000000000000000000000000000000000001F
:2021C0000000000000000000000000000000000000000000000000000000000000000000FF
:2021E0000000000000000000000000000000000000000000000000000000000000000000DF
:202200000000000000000000000000000000000000000000000000000000000000000000BE
:2022200000000000000000000000000000000000000000000000000000000000000000009E
:2022400000000000000000000000000000000000000000000000000000000000000000007E
:2022600000000000000000000000000000000000D1A320006138200085382000952C200053
:20228000713B200065282000D1A320000000000008B506F07BFF04A3D3E9002306F0F0FF99
:2022A00007F000FA08BD00BF333333333333D33FF8B50646481E174606F078FF12A3D3E9CB
:2022C000002306F0DDFF0022114B06F023FE0022104B06F0D5FF0446B81C0D4606F066FF61
:2022E00002460B462046294607F0F4F8044630460D4606F04BFF02460B462046294606F0D6
:2023000009FE07F0CFF9F8BD333333333333D33F0000F03F00409F4008B506F037FF04A320
:20232000D3E9002306F0ACFF07F0BCF908BD00BFAE47E17A14AEEF3F38B50F2003F018F98D
:202340000546C27981792A4803F0C6FF2949284608F013FB284CE8B1E378D3B9042003F0E2
:20236000F5F840B206F022FF1FA3D3E9002306F087FF07F0B7F90146204808F087FF01284D
:20238000054606D11E4803F0A7FFA378012B00D9E57038BD284606F041FB2378027B013BBE
:2023A0009A42F6D103F014F80378012B0FD1406806F00EFF0CA3D3E9002306F061FF07F06E
:2023C00091F9BDE8384001460C4808F05FBF022BDFD190F9010007F08FFA0A4907F0E0FA9A
:2023E000EFE700BFAFF300807B14AE47E17A843FB8B72000C4B42000E94800207058002024
:20240000CFB720000AD7233CFF22482408B5084B08481A60084AE369121A08499847084825
:20242000084AA369121A0021984701F0A3FFFEE7B4200D4040400020EE48002064B8200047
:20244000F0480020F864002008B5002000F062FA012000F05FFA0D49002000F027FB02F09B
:2024600063FD002002F00CFE01F020FA00F036FC00F052FC0821064801F08EFB02F068FC2E
:2024800062B6BDE80840042007F0A6BFE14E2000E864002073B51A4B1B68022B08DD194978
:2024A000194A1A4803F018FF19491A4803F014FF6846082101F070FB174E9DF806309DF88B
:2024C0000750F46A45EA032548F2A5110220A04729460320A0471A210120A047736B082233
:2024E00069460B20984707F0AFFF00F0F5F800210A4802F0F1FA022007F06EFF02B070BDEC
:20250000F4440020D1B42000CCB42000D6B42000E5B4200070B520001CB3200028450020FA
:2025200007B5044B01A99B6A13209847019803B05DF804FB1CB3200007B5044B01A99B6A86
:2025400014209847019803B05DF804FB1CB3200007B5044B01A99B6A15209847019803B0BF
:202560005DF804FB1CB3200007B5044B01A99B6A16209847019803B05DF804FB1CB32000BA
:2025800007B5044B01A99B6A17209847019803B05DF804FB1CB3200007B50422044B0DEBB3
:2025A00002011B6B12209847019803B05DF804FB1CB320000022F0B594460126FF270F4DA8
:2025C00040FA02F3DB0711D515F8121005EB4204CB081B03647803F1804301F0070103F52A
:2025E000592306FA01F12CB143F821C00132032AE6D1F0BD43F82170F8E700BF0AB5200067
:20260000F0B500210126FF270E4D40FA01F3DB0711D515F8112005EB4104D3081B0364780E
:2026200003F1804302F0070203F5592306FA02F22CB143F8227001310329E6D1F0BD43F8D9
:202640002240F8E70AB52000F0B4002101260D4F0D4D0E4C17F811300131DA08120350593C
:2026600003F0070306FA03F320EA030050511059032943EA00031351ECD1F0BC0720FFF70A
:20268000BFBF00BF0AB5200020940D4000940D40084A136823F00403136052F8203C43F009
:2026A000040342F8203C0022034B1A600122034B1A70704720C40D4010C00D40545F0020C0
:2026C000044B1868C0F30720030904BF1030C0B2704700BF1C300D4008B5FFF7F1FF014BD2
:2026E0001B6808BD1C300D402DE9F04800F07CF8114B4FF0000BD3E900673A46B04238BF15
:202700007A1C15464BEA0004C3E900450B49D1E900BCBBEB06026CEB0703161943EB05075C
:20272000C1E9006701F0ACFF18B1BDE8F04801F02BBFBDE8F08800BFF8480020F0480020D7
:20274000E0210D4B0D4A5A600D4A82F82310002207219A6019600B490B6843F001030B60E5
:20276000094B1A60042243F80C2C012243F8082C0F22DA62704700BF10E000E047E801007D
:2027800000ED00E008200D400C000340034BD3E90023100A40EA0360704700BFF8480020FE
:2027A000054B18601C3B1A6842F001021A601A68D207FCD4704700BF2800034010B5064CA6
:2027C000236823F001032360FFF78EFF236843F00103236010BD00BF10E000E0014B1868E4
:2027E000704700BF00490020064B18685A6808331B681B0443EA0223034A0343106843EA00
:202800000060704740500D404C500D40014608B5104A1368DB07FCD572B6FFF7E5FF0B1A28
:20282000062BD8BFC11D0C4B0A0E1A60C1F3074243F8042CC1F3072243F8082CCAB243F89E
:202840000C2C62B64FF40032044B1960044B1A6108BD00BF50500D404C500D40004900205E
:2028600000E100E008B501F0D9F80022064B1A604FF40032054BC3F89021C3F89020BDE8EA
:20288000084001F0FFBF00BF0049002000E100E0064B1B681B075FBF054B186880F00800FC
:2028A000C0F3C00048BF0020704700BF18C0004018D000402C23154A70B503FB00234FF68F
:2028C000BF72DC680546236C626413F050020DD00F4EA369DB0600D570BD56F825301BB1F6
:2028E0002068C0B29847F4E72368F2E713F4D06FF2D04FF440732363FF236360E36AE262C6
:20290000E362236B43F001032363E5E7C4B220000449002001282DE9F74F064600F2B48061
:202920002C2545435A4F7C1994F92080B8F1000FC0F2AA8094F92290B9F1000FC0F2A480F1
:20294000544801F0F3F8544A79591368E5680B4313605368616894F921A00B435360936838
:20296000A1685FFA89FB0B4393600023C5F8C83F23690AEBC8021A6094F92330227D009372
:202980009DF8003058461946019300F037F9019B08221946584600F027F901233F494FEA09
:2029A0000939009A59F8010003FA02F2024349F801204FEA083858F8010003FA0AF2024349
:2029C00048F801205022AA63AA6B94F9240042F4D062AA6302226A634FF440722A63A2695E
:2029E00000286A62E269AA624FF07002EA620D4614DB94F925102A4A41EAC00414600203AF
:202A000054598B4023435351C9B20022C0B200F0EBF8244A136843F4004313602C2303FB2F
:202A2000067393F92640002C1BDB93F927A05FFA84F85FFA8AF901224946404600F0DEF807
:202A400001232403625903FA0AF31343635108224946404600F0C8F8124A136843F48043AC
:202A600013602C2303FB0676F268136B43F001031363012296F82830590903F01F0302FA19
:202A800003F3094A42F8213003B0BDE8F08F00BFC4B220009128200028200D4020940D40C7
:202AA00004410D4030D0004000E100E001289CBF014B43F82010704704490020012808D81B
:202AC0002C22044B02FB0030C3689A699206FCD419607047C4B220000022014B1A60704731
:202AE00000500D400822014B1A60704700500D40A022024B1A6050221A60704700500D402C
:202B0000014A024B9A6070470020200000ED00E038B5164D164C2B68012223F040032B6016
:202B20002368062123F040032360032000F05CF82B68012223F080032B602368072123F006
:202B400080032360032000F04FF80A4B0A4A0B491A600B4A134610680842FCD11A6851018D
:202B6000FCD41A685201FCD538BD00BF20C40D4000C40D4000200D40010102000000010176
:202B800004200D402DE9F84305464FEA0538DFF8389008F1804606F5592600F03FFFD6F8DE
:202BA000187458F80940ED00EC4047EA0400C0B2E4B2A840FFB2AC4002F0CEF9C6F81C740E
:202BC00048F80940BDE8F88318970D40034B044A1A60044B803A1A60704700BF0C490020CC
:202BE00080400D4010490020034B01EBC0011B6843F82120704700BF0C490020034B01EB30
:202C0000C0011B6843F82120704700BF104900200E2870B50BD1154B154E1C6844F002054C
:202C20001D60356825F03F0343F001033360114E336823F0FF031A43114301430E4A31606C
:202C400013681B06FCD50D4B0D4A1B6812680E2803F0FC0343EA022308BF054A1BB204BF3B
:202C60001560024A184608BF146070BD34000144F486084008700D4000700D400C700D4047
:202C800010700D40024B1868B0FA80F04009704700B708404FF40042064B10B5064CC3F8D9
:202CA0009021C3F89020206818B101F02DFF0023236010BD00E100E014490020064A13680E
:202CC00043F002031360536843F002035360936843F002039360704748200D4007B50C4801
:202CE00000F024FFFFF7EAFF0A4B1A6842F002021A6000220192019A0F2A06DD1A6822F05B
:202D000002021A6003B05DF804FB019A0132F1E7852C200054200D40064A136823F0020313
:202D20001360536823F002035360936823F002039360704748200D402DE9F04188460126EC
:202D4000C7083C0300F0070104F180448E4018F00C0304F559246FEA060522D1D4F81034F2
:202D60002B40C4F8103418F0030249D13846FFF73BFFD4F8103418F0800F1FBF1E43012309
:202D800003FA07F7214B0BBF2B40C4F81064C4F810341F60D4F820341D40C4F82054BDE896
:202DA000F081042B0FD1D4F804342B40C4F80434D4F808342B40C4F80834D4F80C34334343
:202DC000C4F80C34CFE7082B0DD1D4F804342B40C4F80434D4F808342B40C4F80834D4F896
:202DE0000C342B40ECE70C2BBDD1D4F804342B40C4F80434D4F808343343C4F80834B2E71E
:202E0000022AB3D0012AB4D10422AFE700E100E0044B186800F02200A0F12003584258410E
:202E2000704700BF4C860840024B186800F04000704700BF4C8608402DE9F8490746884603
:202E4000FFF7D2FC0F4BDA5D82B10F490F4A51F8276002EBC702861BD2E9004514EB060B02
:202E600045F1000CC2E900BC0022DA5513F808202AB9054A42F82800012203F80820BDE8A6
:202E8000F88900BF806100208861002058610020204B1870002832D01F4A13681B03FCD51F
:202EA0001E4B1A6842F002021A601A6842F001021A601A685007FCD51A6822F001021A608B
:202EC0001A685107FCD41A6842F002021A601A6842F001021A601A685207FCD5104A136864
:202EE00023F004031360D2F8A83123F00403C2F8A8314FF400520B4BC3F890207047084A96
:202F0000136843F0040313604FF40052054B1A61704700BF565F002004200D400488084099
:202F20008C86084000E100E00B280DD1082A0DD161B1074B074A083111F8010D43F8040B06
:202F40009342F9D1002070470120704702207047A8850840C885084070B52F4E336813F000
:202F6000400356D02D4D2C68230604D5ED2200202B4B1A6070BDE4B2042CF7D9023C8C42EA
:202F8000F4DCE4B2032C1ED12B6803702B6843702B6883702968234B493949B219702B6843
:202FA000214D18062B70E1D589B2042002F0C6FA2978032001F07F0102F0C0FA1B4B1B7849
:202FC000CBB12046D6E701190139032000F090FC174B611E43EA0111032000F093FC03207A
:202FE00000F09AFC032000F0AFFC032000F0B8FC0028FAD1CEE733685A06E2D533681B06B0
:2030000003D50C4801F080FDDBE7ED22044B1A60D7E71846AEE700BF4C86084028880840FA
:2030200038880840585F0020555F0020565F002002C0010CCC4400200B282DE9F74F0E4626
:2030400012D1082A40F08D80002900F08A80464B464A4E1E53F80419934206F8011FF9D149
:20306000002003B0BDE8F08F0C2870D1042A78D1002976D03E4A3F491368DFF80CE123F09C
:20308000070313600B68DFF804A143F008030B60DAF80030DEF800401068DFF8F4C0364F7B
:2030A00020F070001060DCF800003D68DBB2240243EA0563A4B20004234300F47F000343E6
:2030C0002E48D0F800805FFA88F4019400240094DDE9008948EA0308136823F0070343F0B9
:2030E000010313600B6843F008030B60DAF80030DEF800101568DBB225F0700545F0100577
:203100001560DCF800203D68090243EA056389B212040B4302F47F02134302680098D1B210
:203120008B4640EA030AFFF75FFBB8EB0A0869EB0B094B464746D9030546114A0023F8035C
:2031400041EA574106F068FE281A306088E7122805D1042A05D121B10A4B0B6080E70120E1
:203160007FE702207DE700BFC4850840A48508401088084004880840208808401C88084012
:203180000048E801ACB420001888084014880840248808402DE91848154B1A689207FCD4FD
:2031A0001B685B065EBFED22124B1A60124B1B6813B1EF220F4B1A60104A114C137803F06A
:2031C0007F03137023797BB1FFF70EFB0D4B0E491B69C01AD1E9082312EB000B43F1000CE9
:2031E0000023C1E908BC23710120BDE8188800BF4C860840388808402C860840575F002093
:2032000080610020886100205861002010B50C4B93F90020002A08DBED210A4A1160E3211F
:2032200011601A7862F07F021A70074C23792BB9FFF7DAFA054B186101232371012010BD22
:20324000575F002038880840806100208861002010B50A4B04461B6813F03F0302D0FFF792
:2032600099FF012304EB840205492C3A0A600BB1FFF7CCFF034B1C7010BD00BF4886084006
:203280003C860840E64800202DE9F0412E4F3D7815F0010555D10124F8222C4B4FF07F08B0
:2032A0001C605C609C60A3F59323A3F514731A600922C3F89021152270331A600B2203F5E3
:2032C0009B2303F59E731A60A3F59B23A3F5A6731C604023D5221E4E3360336843F02003E0
:2032E00033601C4B1D60C3F848809A631A4B1878FFF7AEFF4FF480423368022023F00C035B
:203300003360164BC3F80080154B1A6100F010FB1449022000F0ECFA032000F009FB1149E2
:20332000032000F0DDFA104B1878FFF7B1FD0F48294601F0D1FB20463B7823433B70BDE8C2
:20334000F0810020FBE700BF575F0020A8200D402486084008860840E648002094860840D8
:2033600000E100E028880840565F0020CC44002038B50C46002900F09680182800F29580DA
:20338000DFE800F00D1E21282A40495C61767A9393937F815983938587898B8D8F00444BAF
:2033A000186810F0FF0001D1206008E0414B1B6813F0030F14BF022301232360002038BD7C
:2033C0003D4B1B78F9E73D4B1A68043B1B6843EA0223F2E73A4BF7E700230B60394B354A07
:2033E0001B6803F001030B601268920644BF43F002030B60344B1B78002BDFD00B6843F09E
:203400000403DAE70020314B08601B78002BD5D001230B60D3E72E4B2E491A680023D2B21B
:2034200001EBC3000079904202D851F83330C4E701330E2BF4D16FF01703BEE7264B1B681D
:203440005BB2493BB9E7254B1B689B060ED1FFF7DDFE01222248036859B28031FBD0493BF4
:203460005DB20AB1FFF796FE2560A7E70022F1E71C4B93F90030A0E71B4B1B7803F07F03D3
:203480009BE70B2399E71A2397E7072395E7032393E7202391E70C238FE708238DE70020DC
:2034A00082E77D2389E7022089E7012087E700BF2C86084024860840E6480020CC850840E0
:2034C000D485084000860840565F0020E74800204086084054B320005886084048860840E8
:2034E00060860840585F0020555F002010B50B4B1B6899060FD1FFF789FE012308490A6872
:20350000D207FCD5074A1468C4F300140BB1FFF741FE204610BD0023F0E700BF4886084076
:20352000648608404C8608407D2938B505460C4624D8134A13689B07FCD4124B93F90030B0
:20354000002B01DBFFF762FEEE220F4B691E1A60A21C43F8102C2144022000F0C1F90B49E9
:20356000013C41EA0411022000F0CCF9022000F0D3F9022000F0E8F9002038BD0120FCE70D
:203580004C860840575F00203888084002C001C038B50388044653B340F25A42934233D141
:2035A0001B4B18781A4638BB822923D1137873B901F07AFF01F00CFF8021FFF7CDFC00287E
:2035C00005DD80B201F0E8FE124BDB689847124B1A7852060BD500221A70104B1D68FFF7D8
:2035E000D9FDFFF751FEAB0601D0FFF70FFE40F25A43238001200AE01B78002BFAD0064BD5
:203600001B785806F6D5CFE700230380032038BD565F0020F0B32000575F002048860840F6
:203620007D28F8B54BD8274B93F90030002B18DBFFF7DAF80446FFF7E9FDC4F1FF2404F50A
:203640007F04F634FFF7D0F8C442FBD401261E4B1B7843B91D4D2B68990609D50224204605
:20366000F8BD0026F3E7FFF741FF0028F2D1F5E703210420FFF7E0FBE9220424144F3A604F
:203680002B689A0703D4013C14F0FF040ED12B689B070FD4EE2301243B6004210320FFF7D5
:2036A000CBFB002EDBD0FFF775FDD8E70620FFF777F8E5E72C6814F00204FBD1EDE701248A
:2036C000CDE700BF575F0020E74800204C8608403888084013B50C460D2800F2A280DFE806
:2036E00000F0074850575B777E92A0A0A0A0A097012902D1FFF78AFD02E019B9FFF74AFDE0
:2037000000206AE08B1E012B00F28D8001A90020FFF72EFE022C019B19D1022BF0D05A1E66
:2037200053425341414A1370FFF734FD404B414A1968116042221A60D3F8C0103E4A1160B1
:203740001822C3F8C020E922C3F81422D8E7022BD6D1EF22394B1A60364B1A68344B1A60FA
:20376000354B1A68364B1A60304B1B78002BC7D0C0E7A1F10B030F2B55D8C8B2FFF768FDF9
:20378000BEE78CB22F4BE2B2240A1A605C60B7E78CB2E2B22C4BF7E731F0070343D12B4B5A
:2037A00011F0010F1A68C1F3800014BF42F0010222F001021A601E4B11F0020F1A6814BFDB
:2037C00042F0200222F020021A60FFF761FB97E731F0010027D11E4B197002B010BD01F19A
:2037E00018031F2B1FD80D231A4A52F83300D900844204DC0A441279174B1A6080E713F1BD
:20380000FF33F2D27CE7CCB2144B49341C6077E7074B1A6811B122F00C02EEE742F00C0250
:20382000EBE70120D9E70220D7E700BF595F002024860840184900201C490020388808405E
:20384000E4860840C8850840D085084000860840E748002054B3200040860840588608400C
:2038600008B5054B1B7813B9044801F04DF90022034B1A6008BD00BF565F0020CC440020E6
:2038800034880840064B07481A68042A1FBF06490A7842F040020A7000221A6001F034B9BD
:2038A0002C880840CC440020575F002010B5094C40220021204606F041FD0122064B1A60E1
:2038C0004FF480425C60054B5A604FF400425A6010BD00BF0040002004F00F4000E100E0EE
:2038E00003289EBF014B0001195070470040002003289EBF024B03EB00104160704700BF89
:203900000040002003289EBF024B03EB00108160704700BF00400020032806D80123034A43
:2039200003FA00F0116808431060704728F00F40032806D80123034A03FA00F0116808431D
:203940001060704720F00F40032806D80123034A03FA00F0116808431060704714F00F403C
:2039600003289FBF044B03EB0010806800F0070088BF0020704700BF004000204FF0FF32E5
:20398000014B1A60704700BF04F50F400122014B1A6070474CF00F40084B19461A68D00272
:2039A000FCD4074B1A6822F480321A600A68D203FCD41A6842F400321A60704704200D407E
:2039C00000200D402DE9F84907468846FEF70CFF0F4BDA5D82B10F490F4A51F8276002EBD6
:2039E000C702861BD2E9004514EB060B45F1000CC2E900BC0022DA5513F808202AB9054AEE
:203A000042F82800012203F80820BDE8F88900BF80610020886100205861002010B50E4C17
:203A20002368980716D00D4B1A4619684901FCD413685B01FCD5FEF7C1FEFFF7ADFF20689D
:203A4000002100F00300012818BF0220FFF7BAFF0023236010BD00BF58200D4004200D4019
:203A600038B52C4B1C6814F03F042ED12A4D55F8243023B1984740B30134052CF7D1274DB8
:203A80002B7813B3FEF7AAFE0446FEF7ADFE201A09281AD9CCB1224B1A6822F400321A60AA
:203AA000204A11461068C002FCD41A6842F480321A600B68DB03FCD5FEF796FE201A092841
:203AC00007D8BDE83840FFF767BFBDE8384006F0ECBC6328144C0CD92B78022B09D1236016
:203AE00000F0C8FF054630B1FFF756FF0023236038BD0123F3E7FEF771FE0028F4D0216826
:203B0000284601F00301012918BF0221FFF75AFF30BFEDE748860840204900205A5F002094
:203B200000200D4004200D4058200D400023064A52F82310814206D011B942F8230070477B
:203B40000133052BF4D17047204900200022054B1A60054A136943F0040313610222034B25
:203B60001A70704758200D4000ED00E05A5F00204FF48032064B10B5064CC3F89021C3F815
:203B80009020206818B100F0BFFF0023236010BD00E100E03449002010B5134B1B780BBB29
:203BA000124A1278122A03D1114A12784B2A0FD001F52012273212E003F52012032BD4BF78
:203BC0002C3224321478CA1A024402F8014C01338B42F1DB10BDD41A2478C45401338B42F7
:203BE000F9DBF7E70023E3E72B0028002A002800290028002DE9F843038806463BB1B3F574
:203C0000127F0BD0002303800320BDE8F8834021314806F00DFD4FF4127333802E4806F08E
:203C200022FD0028F1D003F009F904462B4D2C4FB4B92C4D2C4F2B68DFF8B880186906F0D0
:203C40009FFD0446DFF8B090B4B9284A1368174601331E2B2EDC13601F4806F0F2FCDAE7AA
:203C60002B68A34206D03B68A34203D0208FFEF753FB20872468DBE7E069FEF74DFBE061ED
:203C800006F0C0FC88B93B78012B0ED1237D5B070BD406234046E1183B7006F06BFE238A33
:203CA000628AA9F80030124B1A80204606F092FD0446C9E7146003F0C1F840B92B6818693E
:203CC00006F05EFD28B93B6801333B60C4E70068F3E706F07FFDF5E73C49002010620020CE
:203CE0000C62002050490020E848002038490020845900209C64002086590020044B1A788F
:203D0000032A04D119B905221A70024B19607047E8480020584900202DE9F047624B88B05E
:203D20001B6880460F46164653B9012304225F495F4806F05DFE0024204608B0BDE8F08735
:203D40005C495D4806F019FE0028EED15B495A4806F013FE04460028E7D1544D39460A2262
:203D6000284685F8148006F011FA0A223146A81806F00CFA01F098FB1621284601F0A4FBAB
:203D800003210E2001F0DAFB4D490F2001F0E4FB4949102001F0E0FB4A4B07201A68013277
:203DA00008BF01221A60198801F0C8FB0121082001F0C4FB03210E2001F0C0FB424B5B6802
:203DC0009847071EB1DB3C4803F058F806460028B2D003F065FE05460028ADD103F066FEF8
:203DE000002840D006F13408404606F0A1FC00B2431C2CB205F101052CD1072C03D10698B2
:203E000003F00EF9062403F073FE284B284A0821294803F0B7F8824603F048FE70B106F1E0
:203E20003409484606F079FC00250FFA80F8B8F1FF3F2ED0A54218D103F05AFEBAF1000FEC
:203E40003FF473AF8AF80F701B4802F0FDFF0124448771E708AB06EB800003EB840443692D
:203E600044F8203CC0E70446CFE7484606F047FC08AB03EB850353F8203C06EB8808C8F82B
:203E80001430484606F049FC01352DB20FFA80F8CDE7631E9D42CFD108AB03EB840454F856
:203EA000200C03F0BDF8C7E7384E0020A4640020FD3C20009CB420009C64002094B4200061
:203EC000E8640020D8440020E4B320002DE9F04F3C4B8FB09B68984701F07AFA16220146A2
:203EE00008A806F053F90F2001F042FB02AE0146684606F03FFD05AF0A2208A93046324D16
:203F00009DF8348006F042F90A220DF12A01384606F03CF92B78012B34D169462B4806F03D
:203F200029FD0A2231462A4806F030F90A223946284806F02BF9B8F1010F3DD10024DFF830
:203F40009890DFF88CA0DFF88CB036F81410D9F8000007F01BF948B14FF6FF732AF81430DF
:203F60002BF8143026F8143027F814300134052CEBD13A4631460220FFF7CEFE012801D11D
:203F800003232B702B78022B13D1B8F1020F10D10E49684606F0F1FC58B10A2231460C4829
:203FA00006F0F4F80A2239460A4806F0EFF804232B700FB0BDE8F08FB8F1020FE2D104230C
:203FC000DFE700BFE4B32000E84800209C64002088640020926400205049002013B5044648
:203FE00002F032FFE8B11049204606F0C6FCC0B90E49204606F0C1FC024690B90223D020FF
:204000000193E179A3791944013191FBF0F300FB1311074889B2009123460621006803F073
:2040200077F902B010BD00BF9CB42000A4B420005049002070B5134B05461B680C468B42C1
:204040001ED0114B1B688B421AD00E8F06F0E0FFA27C01463046FEF72BF9208780B206F0A7
:20406000D6FA68B9094B1A78012A09D1628F3AB902221A702946BDE87040054806F07ABC95
:2040800070BD00BF106200200C620020E84800209C64002037B560B3837AC27A9D201A4451
:2040A000013292FBF0F300FB13239BB229BB4FF6FF749D25254A26491068CA7989790A4498
:2040C000013292FBF5F105FB112293420DD101220521CDE900321F4B022203F019F94FF64B
:2040E000FF739C4219D103B030BD194607F063F8F5E70029F7D04FF6FF738C7ACA7A9D21AA
:204100002244013292FBF1F401FB1424A4B29C42E9D04FF6FF729342CBD19D220C4B0B48E3
:20412000D9799B791944013191FBF2F302FB13110123CDE900430222064B8C420CBF0721A5
:204140000621006803F0E4F8CDE700BF54490020E86400209CB420002DE9F047494C88B0DB
:204160002378012B61D0484802F088FE23780546062B07D1454B1988454B186807F01BF805
:20418000012323702378042B21D141F225332B870025404E3E4FDFF804814FF6FF7236F8EF
:2041A000153093420DD038F815200121CDE90032354B0022386803F0ABF810B141F2883312
:2041C000C3610135052DE8D1012323702DE0052B1FD141F225332B8700252E4E2C4FDFF886
:2041E000BC804FF6FF7236F8153093420DD038F815200221CDE90032234B0022386803F015
:2042000087F810B141F28833C3610135052DE8D1DAE7032B0CD1204A13680133B42B1360F4
:2042200003DD012323700023136008B0BDE8F087022BFAD100264FF0D008DFF854900DF18F
:20424000080A00F00BFFB0FBF8F505FB180500F005FFADB207462946D9F8000006F096FF32
:204260000028EED105AA07F00F072AF8165022F816700136052EE4D151460120FFF74CFD5D
:20428000A2E700BFE84800209C6400208659002050490020886400205849002092640020CB
:2042A0004FF6FF73F7B52B492B4A0B804B808B80CB800B810220D021138053809380D3809B
:2042C000138102F085FF254E9D213060012002F07FFF234D9D212860002002F079FF214BD6
:2042E0009D2118600123204F0193BA79FB791F4C1344013393FBF1F201FB12339BB2009332
:2043000002222346052103F003F80223D0210193BA79FB791344013393FBF1F201FB12336E
:204320009BB200933068002623460022052102F0EFFF234632460721CDE90066286802F0A7
:20434000E7FF03F0DBF83146094803B0BDE8F04000F0C2BB88640020926400205049002019
:204360004C49002054490020E86400209CB42000DC44002010B5504C06F05AF8FEF7E0F938
:2043800006F076F900F01AFB00214C4800F0A4FB00F0F6F9FEF7A0FB00F0B6F800F0C0FBB7
:2043A000FEF752F800F0A8FE01F0F2F800F07EFA2368022B07DD424A4249434801F08CFF2B
:2043C000424801F089FF2368022B09DD3D493C4A3D4801F081FF3E4B3E48196801F07CFF3E
:2043E0002368022B09DD3749354A374801F074FF394B3A48196801F06FFF2368022B09DDB9
:2044000030492F4A304801F067FF354B3548196801F062FF2368022B09DD2A49284A2A4816
:2044200001F05AFF48F2A5112F4801F055FF2368022B08DD2349224A234801F04DFF042144
:204440002A4801F049FF2368022B09DD1D491C4A1D4801F041FF264B2648198801F03CFF05
:204460002368022B07DD164A1649174801F034FF214801F031FF2368022B02DD1F4800F0E6
:2044800021F92368022B02DD1D4801F025FFFEF701F8FFF705FF1B4806F0C0F8FEF722FBE6
:2044A00000F0A4FA0446FEF723FB14F0FF0FF7D105F0C8FFF4E700BFF4440020E84400203D
:2044C00035B52000D1B42000D6B420003AB520001CB420004FB520000CB420005EB520004D
:2044E000F0B3200069B5200074B520008EB5200088590020C3B52000D0B52000E864002065
:204500005FB720006CB42000F8B5002300261A4600270949094D0A4C45F823201A55013387
:20452000052BE1E90267F7D1237823B9FEF75CF9012328602370F8BD5061002088610020C1
:204540008061002010B50E4C236813B90D4A136010BDFEF71BF92168D1E9002313448A6895
:204560001B1A1AB91844074B1860F1E7D2E900142144091A8B4228BF0B469268F1E700BF48
:20458000604900205C490020014800F0BDBA00BFE84400202DE9F8430388054653B1592B23
:2045A00047D1872920D1002024490B6863B918B10B6001E0214A1360592301202B80BDE846
:2045C000F88301203346F1E7D3E902649442F8D000B10B6099680029EED0C86890420ABF5F
:2045E00089680B469960F5E78229E5D1134F4FF00009B84600263C68002CDDD0204606F09C
:204600004CF898B122468821E06800F03DFA58B9E060A3682EB1B360C4F80890FFF792FF64
:20462000E8E7C8F80030F7E7FFF7AEFF2646A468E2E7002303800320C1E700BF6049002000
:2046400010B50446FFF7A0FFE3680B4A0BB1136833B90A4B1B68E36013681460A36004E002
:20466000A34206D1054A1268DA60BDE81040FFF769BF9B68ECE700BF60490020F04A0020B0
:20468000024B1868003018BF012070476049002010B50B4A04461368834208D183681360CA
:2046A000FFF750FF0023C4E9023310BD1346002BF8D09A68A242F9D1A2689A60F0E700BF4D
:2046C00060490020F8B5054688B9BDE8F8400A4801F002BEE30702D4384601F0FDFD295D49
:2046E0003046013401F0F8FD082CF3D1F8BD0024024E034FF3E700BFE5B52000F6B5200098
:20470000F4B52000F8B5038806461546CBB14A2B2BD188291FD1174806F032F80446C4B125
:20472000231D9D421FD12146124806F033F8124D62692F682A60A2690AB1E06990472F60C8
:2047400007E00C4806F01CF8044634B901220B4B1A704A23338001200AE0A168201D05F074
:2047600067FF2468F1E72468D9E7002303800320F8BD00BF68490020F04A00205B5F0020E1
:2047800010B50024054B06481C7005F0F6FF2146BDE81040034800F09FB900BF5B5F002094
:2047A00068490020F844002070B50446E3610B4B049D1B78C4E905526BB1094D094B2E682F
:2047C000201D2B6005F034FF2E602146BDE87040054805F0F2BFA160F7E700BF5B5F002034
:2047E000F04A0020F84400206849002013B5034C24680094FFF7D8FF02B010BDF04A002055
:2048000010B5084B04461B7843B10430FFF740FF2146BDE81040044805F0BCBFC0E903334F
:20482000F6E700BF5B5F00206849002010B50A4B04461B7823B1BDE81040043005F013BF76
:20484000064805F09DFF08B9012010BDA04201D00068F8E70020F8E75B5F00206849002026
:20486000024610B5064853600468029B11609360026014B90846FDF7C9FF002010BD00BFD8
:204880006C49002010B5084C206858B100232360D0E901319847236823B1BDE81040186855
:2048A000FDF7B4BF10BD00BF6C490020034A9179D379034A03EB012313807047E864002078
:2048C0008859002038B5436804460D469BB10A4804600220A07204F108009847023801282D
:2048E00001D9832D05D121462046BDE8384000F005B80123A37238BDF04A00202DE9F843E8
:204900001C4F89463D682C46844204D00CB9BDE8F8832468F8E7002CF9D0174EA37AD6F817
:20492000008063B10023A3728DB963683BB14C4505D034602A46832104F1080098473B6821
:20494000A3420ED123683B60C6F80080DFE7AC4204D022468721284605F08CFE2D68E3E74B
:204960001346002BF0D01A68A242F9D122681A60EAE700BFF44A0020F04A0020002238B568
:204980000125084B1A70084B1C6804B938BDE37A2BB16581002282212046FFF793FF24682D
:2049A000F3E700BF5F5F0020F44A0020024B1878421C1A70704700BF5D5F00208A22064B0E
:2049C0001A700023054A1370054A1370054A1360054A1360704700BF5D5F00205C5F0020D5
:2049E0005E5F0020F44A0020F04A00202DE9F0411B4D2B780BB1FFF7C1FF1A4C22789AB113
:204A00000C21194E194F3378013A59430133781803F01F0317F801803370D0E90170227050
:204A200090B9134B1E6826B92B7820781844BDE8F0812B780BB1FFF7A1FF30463A4641464B
:204A400005F018FE3668EEE7B8F1810F08BF01233A4608BF8372414605F00CFEE4E700BF68
:204A60005F5F00205E5F00205C5F002070490020F44A0020024A034B10781B7818447047A1
:204A80005E5F00205F5F0020F0B50B4E3378202B0FD00C25094C0A4F24781C4404F01F0496
:204AA0006C433D19C5E901200020013339553370F0BD0120FCE700BF5E5F00205C5F002075
:204AC0007049002038B5034C256805F0D3FD256038BD00BFF04A002030B40A4C0A462568C5
:204AE0002B4683420CD04BB950B101210560817220600381812130BCFFF7E4BF1B68F0E7A0
:204B000030BC7047F44A002038B1837A013B012B9FBF0123014AC372137070475F5F00202C
:204B2000CD2182B0064B02AA42F8043D934204D30021044802B0FFF7CFBF03F8011BF5E79B
:204B4000F86400200445002038B5FDF7D1FF0C4C0C4D2378CD2B0CD0AC4207D3FDF7C8FF1C
:204B6000AC4234BF281B4FF0FF3038BD0134F0E701342378CD2BF1D1AC42F9D3EEE700BFCA
:204B8000F8640020F86C002070B5038805460BB3912B37D11D4805F066FD10B3FFF7D4FF4F
:204BA0001B4C1C4B061EA4EB030401DB002C1ADA194B1B68002B09DD184A1949194801F063
:204BC0008BFB22463146184801F086FB0F4805F038FD04E04FF4A0610C4805F029FD9123D2
:204BE0002B80012011E0A642F0DD0B4B1B68002BECDD0A4A0A490B4801F06EFB2246314643
:204C00000A48E1E700230380032070BDF84A0020F86C0020F8640020F4440020FBB52000FA
:204C200001B62000D6B4200005B620002FB6200010B5044690F84C30084A013380F84C3086
:204C4000802103462030FFF7D1FD054B2246BDE8104019780020FFF717BF00BF314C2000D0
:204C6000F4640020F8B503880446A3B1D52B27D1822912D105F025FCBFF35F8F0022124B2B
:204C80001E681A60BFF35F8F05F01FFC0F4D104F55F8040F18B9D5232380012013E090F841
:204CA000453026FA03F3DB07F2D5FFF7BFFD0028EED02B683A4602211846FFF797FDE7E73C
:204CC000002303800320F8BD144B002064440020ED4C2000034A1368184310600248FFF7E3
:204CE00013BF00BF144B00201045002070B50446FFF79CFD20B304F120063046FFF796FD44
:204D00000546204605F0E1FC012811D1C5B1002523460C4A84F84C507E213046FFF766FD25
:204D20002246094B2846BDE870401978FFF7ACBE30B92DB93046FFF763FD2246034BF1E7DA
:204D400070BD00BF314C2000F5640020F36400202DE9F843FFF72AFE304B314E1870FFF7F3
:204D600025FE304B304D1870FFF720FE2F4B304F18700023B3602F4BDFF8C480DFF8C49005
:204D8000736055F8041F39B92B48FFF7A5FEBDE8F843234800F0DAB8012491F845308A6CEC
:204DA000D9080903C85903F0070304FA03F320EA0303CB512B6893F84530D908090351F8FF
:204DC000080003F0070304FA03F320EA030341F808302B6842F08C0193F84500FDF7ACFF98
:204DE0002B6893F84530DA08120352F8091003F0070304FA03F30B4342F809302B680F4A28
:204E000093F84530DB0804FA03F313602B6893F845309C40B3681C43B460B2E7F564002039
:204E2000084B0020F364002064440020F464002020940D40D54C20001045002000E100E0D0
:204E400000940D4010940D4070B5058804466C2D09D07E2D2FD0002D33D1FFF7A7FD1B4B37
:204E600018701B4B1D601B4E194D08E00A282B680ED07E2B03DC5A1C2A60174AD0543046EA
:204E800005F00DFD431CF1D16C23238001201BE05A1C2A600025104A2846D5540B4B1978A7
:204EA000FFF7F2FD0D4B2A4685211868FFF7ECFD18B97E23E9E78529E8D10022044B1A60AC
:204EC000D1E700230380032070BD00BFF6640020184B00201C4B0020605F0020F04A0020A8
:204EE0000D2810B5014616D00C4C237853B90C4805F0C2FC08B9012323700A48FFF704FEC3
:204F0000012010BD0A28F8D1054805F0B5FC0028F3D00023F0E70020F3E700BFE05F0020B8
:204F20001C4B00201C45002008B505490548802205F09BFCBDE8084000210348FFF7CCBD0B
:204F4000E15F00201C4B00201C4500200146014805F033BC244B002038B50546064805F06B
:204F60000FFC044604B938BDA068284002D0636803B198472468F5E7244B0020014805F055
:204F8000FCBB00BF244B00202DE9F04104880646772C20D07E2C3DD0002C4ED1FFF706FD5F
:204FA000284D294B294FDFF8B08018702C602B6857F823202AB9264A13707723338001200C
:204FC0003EE008F8034093680021802098472B6801332B60EBE700231E4A1360194A1360DD
:204FE000184B1B4A1B6812789A4204DC194B1B68002BF0D1E1E7184AD256002A19DA134A81
:20500000002052F82320104B1978FFF73DFD28B97E23D3E70C4B1B788B42D0D1094B0E4988
:205020001A688B5C03F07F038B540A4A136801331360044A13680133D1E7002303800320BF
:20504000BDE8F0812C4B0020F7640020C044002061600020284B0020F0640020064A136851
:2050600043F004031360054B186804331B6840EA032080B2704700BF00700D4014700D4076
:2050800010B5174A136823F00C0313600122154B1A601A68012AFCD10822134B13491A6005
:2050A000E32203F505731A601A460B68DB07FCD50F4C102100232068013900F0010043EAEC
:2050C00000034FEA43039BB2F5D1002BF1D00949180A03F0FE0308600B60EF23136010BDC2
:2050E00000700D40A8200D4024860840648608409C86084014700D4008B5044805F06DFB19
:20510000BDE80840024805F068BB00BF404500203445002038B50E4805F06FFB054650B155
:205120000C4805F06AFB0446286030B92946084805F077FB2546284638BD00F051F904F1E3
:20514000A001A4F8800004F1820000F0D3F9F2E7344500204045002010B5014604460748A3
:2051600005F075FB48B12168054805F05AFB2146BDE81040014805F054BB10BD34450020A2
:205180004045002010B501460446094805F05FFB68B12468B4F88010204600F095F904F1BA
:2051A000A00104F18200BDE8104000F0B5B910BD3445002010B501460446034805F047FB46
:2051C00000B1206810BD00BF3445002030B1054B9B68C01A044B8010584370474FF0FF30C4
:2051E000704700BF4C450020ABAAAAAA38B50D4D002818BF05460C4805F0C2FA044610B936
:205200004FF0FF3038BD211D284605F0B6FB20B12046BDE83840FFF7D9BF204605F0DAFAC8
:20522000ECE700BF94B42000704B002008B5024605F05EFB42B1431C06D0044B1268185CE1
:20524000104100F0010008BD0020FCE77A6000202DE9F0470D46064618B900242046BDE85E
:20526000F0873D4B002908BF1D462846FFF7BEFF441C074645D1394805F0BFFA0446A0BB24
:20528000374805F07DFA27460246DFF8DC80DFF8D490002A45D1002CDFD00027DFF8CCA07B
:2052A00020465AF82720FFF791FF014682B1D2F80880B8F1000F0BD0104605F00FFB01466E
:2052C00081461046FFF7B2FF012801D14846C0470137082FE4D12046FFF778FF0022214BF5
:2052E00021461A541E4805F055FA21461C4805F064FA2046FFF76AFF29460746201D05F05E
:2053000039FB3946304605F0E9FA04467268002105F014F8012322463146124805F0F3FA07
:205320009CE71046FFF752FF18F800304BB919F8001059B90CB1BB4203DA1446002BACD03E
:205340001F46104605F046FA0246A2E7C80748BF01334910EDE700BF94B420004C4500207D
:20536000704B00207A60002072600020504B002010B507490B88834208DB064C80B222882D
:205380000244181A08800120228010BD0020FCE70A5F00200C5F0020014B1880704700BF0C
:2053A0000A5F002000487047A44B0020014B1888704700BF0A5F0020034A044B10781B78B4
:2053C0001844C0B2704700BF7E6000200C5F002008B5FFF7F1FF014B184408BDA44B0020E1
:2053E00070B50D4D0D4C2A78238806461344802B0FDC0B4904F0CAFE2B781E44FFF7E8FF5D
:2054000022880146304604F0C1FE28782388184470BD0020FCE700BF7E6000200A5F002055
:20542000A44B002008B5FFF7C7FF024B1B88184480B208BD0A5F002010B50146FFF7F2FF25
:205440004318802B0FDC094B013800B25A18040405D5074B187808441870012010BDC45C04
:2054600014540138F3E70020F8E700BFA44B00207E60002038B5094D094C1E22002109489C
:2054800004F05CFF2946204605F074FA294604F10800BDE8384005F06DBA00BF94B42000B9
:2054A000BA640020CA6400200023044A1380044A1380044A1370FFF7DDBF00BF0C5F0020CE
:2054C0000A5F00207E60002038B50C460546FFF7EBFF802C28BF802429462246034804F08E
:2054E00055FE034B20461C8038BD00BFA44B00200A5F002010B50C461E22054904F046FEE0
:205500002046BDE810401022024904F03FBE00BFCA640020BA64002010B50C461E220146D9
:20552000044804F033FE2146BDE810401022024804F02CBECA640020BA640020024B23F850
:2055400010100120704700BFCA640020014B33F810007047CA64002008B5044B0F3803EB79
:20556000C00005F007FA012008BD00BFBA640020024B0F3803EBC000704700BFBA6400209C
:205580000149024805F0F9B994B42000C2640020054B10B51B689847044B5B689847BDE815
:2055A0001040034B5B6818471CB32000F0B320000CB42000F8B531F0020307460E461546CA
:2055C0002FD10146174805F0BBF9044650B90346092239461348FFF73BFE044608B305F0B2
:2055E000E6F9A080FDF7D2F8237A20602B44102BA8BF10232046022E237208BF0C3505F065
:20560000C4F9002814BF0A221922ED01ADB25543A388C2F1640101FB03556423B5FBF3F5D0
:20562000A580F8BD58450020F8B5FDF7AFF8002504460E4F0F2007EB0516FFF799FF31467E
:2056400005F09BF968B10720FFF780FF337B83420AD1B068201AB0F5206F8CBF00200120AC
:20566000F8BD0135102DE5D10020F9E7544C002070B5144D00242E460F20FFF779FF05EBE1
:20568000041105F07AF9013408B9102CF4D12401103C0FD10720FFF759FF3073FDF776F8CB
:2056A000B0600F20FFF764FFBDE870400146054805F060B960191022A0F1100104F066FDB7
:2056C000E6E700BF544C00202DE9F84F0646144612B94FF0FF3064E04FF00008C146454625
:2056E000DFF81CB282F8038021B9801BB8F1000F57D146E00129ECD9824643781AF8022BDC
:205700008F1E42EA032212B2B8F1010F93B2FFB24FEAD27237D007D3B8F1020F48D07F1B4E
:205720000AEB0500F9B2DFE7002AD2D103F07F05C3F3C7137E2B18D07F2B1ED0AF42C8D375
:205740001E2BC6D1022DC4D1C278837843EA02231BB2D90F9AB2A170110546BF42EA0B03B7
:205760001BB2C3F30B032380D9E7002DB1D1AAEB0603E3704FF00108D1E7002DA9D1AAEB59
:205780000600E0700DE0002AA3D0C3F30A02C3F3C323012B07D00F2B9BD1002A99D1AAEBF9
:2057A0000600BDE8F88F91464FF002080025B6E7B9B2002A7FD1DDB28D42C3F3062388D853
:2057C0001B2B18D01C2B5ED01A2B82D1062D80D18378A360C27843EA0223A360027943EAD5
:2057E0000243A360427943EA0263A36083792373C379237428E0002D3FF46BAF83781BB361
:20580000012B7FF466AF8279042A3FF762AF02EB8202511D8D427FF45CAF84F82A30C37827
:2058200004F1300C84F82B304179037943EA0123A385837984F82E30C31D0C300244053341
:205840009A420CF1060C09D1AB1CA9EB0309B9F1000FFFF63EAF7FF462AF8BE713F8040C70
:2058600013F8051C41EA00212CF8061C13F8020C13F8031C41EA00212CF8041C13F8011C6F
:205880000CF8021CDBE7012D02D0192D7FF421AF8378192D6374D7D104F1120200F11801C8
:2058A00090F804C0C378023043EA0C23884222F8023BF5D1C8E7C3F30A058D42C3F3C3230D
:2058C0003FF607AF092B7FF404AF002D3FF401AF8378012D84F84830B6D0C37A827A42EA6B
:2058E0000322042AA4F84A20AED802F10C039D42AAD100F10C0104F14C0004F047FCA3E76D
:2059000000F0FFFF30B591B0054600F063F84FF6FF73984204D14FF0FF34204611B030BDF1
:2059200040220021684604F009FD274B1A782AB901221A70FFF792FB244B18707DB10720D9
:20594000FFF704FE58B9214C23780BB90123237021780720FFF7F2FD237801332370FFF7BE
:205960000FFE6A46C1B21A4805F089F9FFF708FE08B34FF6FF73ADF800300F20FFF7F8FDC1
:20598000014602A804F0F6FFFFF722FD0E90FFF70DFD0F90684605F06BFA0446002DBCD0D0
:2059A000FFF74AFD0028B6D0FFF7FCFC0146684605F0A6FAB1E71020FFF7DAFD01466846FA
:2059C00004F0D8FFD9E700BF7F600020806000204D552000014B1888704700BFE44800200E
:2059E000014B1880704700BFE448002013B500210446019110B9002002B010BD01AA1030E9
:205A000005F087F9019B002BF5D0064BA08B1B88834205D04FF6FF73C31A58425841EBE733
:205A20000120E9E7E44800202DE9F0410E461546044610B90020BDE8F081407E58B104F12E
:205A40000807022839460CBF4FF002084FF0080805F0FFF928B14EB10F49304604F08AFF1B
:205A600004E0B8F1080FE5D1002EF6D1E07D38B10228214614BF0826022605F0EAF928B126
:205A800045B10549284604F075FF03E0082ED1D1002DF7D10120CEE794B420002DE9F041B7
:205AA000012986B006460F46144603DC002006B0BDE8F08103A905F06AFA0A2203A904F1EE
:205AC000100004F063FB9DF81130002B44D0B51C02AA01A903A805F01CF99DF81380B8F1A2
:205AE000000F4CD0029B23B16A7815F8023B03EB0223B8F1020FA38332D13249204604F013
:205B000039FF6B78237015F8023B63709DF81580B8F1000F4DD0019B002B37D06A7815F8FE
:205B2000023B03EB0223029A9BB2E38302B9A383B8F1020F2DD1234904F1080004F01AFFB7
:205B40006B78237215F8023B6372A81B3B1A8742C4E90E53AADBAAE7B378F51CA376B7E7B6
:205B6000B8F1030FD2D105F108021346611E13F8010D9D4201F8010FF9D11546C6E71149C2
:205B8000204604F0F7FEA4F81C80BFE7A38BE383CEE7B8F1030FD8D105F10802134604F1DD
:205BA000080113F8010D9D4201F8010BF9D11546CBE7044904F1080004F0DCFEA4F81E80B6
:205BC000C3E700BF94B4200070B505460C460A4E102C07D874B12B68224668680649BDE8DB
:205BE000704018472B68102231466868984710B9103CEDE7204670BD4AB620002DE9F04FBA
:205C00000746144600258FB00791079B1B78B3B1DDF81C8000E0B046464616F8013B0BB16F
:205C2000252BF8D1079B98450ED0A8EB03094A463B6807997868984728B14FF0FF35284603
:205C40000FB0BDE8F08F4D4498F80030002BF6D098F80130002BF2D04FF0000A314611F8A8
:205C6000012B33462B2A16D00AD8202A16D0232A17D0A2F1310008283FD84FF0000918E0B3
:205C80002D2A04D0302AF4D14AF0100A01E04AF0010A0E46E2E74AF0060AFAE74AF0020AB2
:205CA000F7E74AF0080AF4E70A2303FB0929A9F13009334616F8012BA2F130010929F3D93A
:205CC0001A782E2A35D159785A1CA1F13000092828D8002611781346A1F13000092802F1AC
:205CE00001021AD91A786C2A40F092805A786C2A22D14AF0800A023321E02A2A0AD1D4F8F4
:205D000000900B46B9F1000F04F10404B8BF4AF0010AD5E74FF00009D2E70A2303FB06162C
:205D2000303ED7E72A2903D1266802330434D9E713464FF0FF36D5E701334AF0600A1A7862
:205D4000642A00F0928000F28580462A00F0AF8071D8252A00F0C08066D8002A3FF46FAFAC
:205D6000013307930AF4E063B3F5806F00F0568200F2B580B3F5807F00F0EA80B3F5407F26
:205D80007FF443AFAF4B1AF4804FAF4A18BF1A460DF1330300211E462068043450EA010CD7
:205DA00040F07482F61A04BF302203F8012C4FF0780208BF03F1FF3303F8012C4FF0300231
:205DC00008BF012603F8022C23220336B1458CBFA9EB06094FF000091AF0010AA3F103084E
:205DE00003F8032C06D149463846FFF7EDFE00287FF423AF3B6832464146786898470028BE
:205E00007FF41BAF3544BAF1000F00F03682ACE1682A94D15A78682A02D14AF0200A6AE7FA
:205E200001334AF0400A8AE7412A4CD0452A97D14AF4424A94E7582A33D004D8472A8FD164
:205E40004AF4A13A8CE7612A3AD0632A88D14AF4A06A85E76E2A3CD00AD8662A24D029D381
:205E6000672A2AD0692A7FF47BAF4AF4245A77E7732A2BD007D86F2A10D0702A7FF470AF31
:205E80004AF4407A6CE7752A05D0782A7FF468AF4AF4C85A64E74AF4106A61E74AF4885A4C
:205EA0005EE74AF4B24A5BE74AF4007A58E74AF4844A55E74AF4024A52E74AF4813A4FE7F0
:205EC0004AF4C13A4CE74AF4E13A49E74AF4806A46E74AF4E06A43E74AF4C06A40E7B3F58F
:205EE000C06F2BD0B3F5E06F00F0DF81B3F5A06F7FF48BAEB9F1010F38BF4FF00109236849
:205F00001AF0010604F104048DF8203009F1FF3807D141463846FFF757FE00287FF48DAE6F
:205F200045443B68012208A97868984700287FF484AE002E00F0A181414617E13B68012250
:205F400042497868984700287FF477AE01355CE6002EACBF2AF0100A01261AF400520AF071
:205F6000E003069243D0402B3AD009D8002B3AD0202B11D000220023CDE90023002319E0A2
:205F8000602B30D0802BF5D1073424F0070303F10804D3E9002303E094F90020D31704341B
:205FA000002A73F10001E7DA524263EB4303CDE90023012305930AF4C053B3F5805F00F04C
:205FC000EB80B3F5C05F00F0EC80B3F5006F40F00381DDE900230DF1360BCDE9022348E03D
:205FE000B4F90020DAE722680434D317D8E7402B1FD009D8FBB1202B14D0002300220593B5
:206000000023CDE90023D6E7602B14D0802BF4D1073424F0070303F10804D3E90023CDE9FA
:20602000002304E022780023CDE900230434069BC0E72288F7E72368002219460434CDE9C1
:206040000012F4E76AB620007BB620009DB62000DDE902010A22002303F0DEFEDDE902019F
:2060600030320BF8012D00230A2203F0D5FECDE90201DDE902231343EAD10DF13603A3EBFE
:206080000B030293029B41F608029E4288BFF61A41F208030AEA020298BF00269A4202D1E6
:2060A000002E08BF012641F60801029B8A42334440F09680DDE900120A4300F091807D4972
:2060C0001AF4804F7C4A08BF0A464FF002080092069A82B1059A002A40F087800AF0060256
:2060E000022A00F08780062A744A009904BF11464FF001080091434499458CBFA9EB0309B3
:206100004FF000091AF00103059304D11AF0100F74D04E449946D7E90030B8F1000F05D061
:2061200042460099984700287FF487ADB246029B1D44BAF1100FD7E9003066D8BAF1000FE8
:2061400005D052465E49984700287FF476AD3B68029A594678684544984700287FF46DADB3
:20616000059B3544002B00F0888049463846FFF72BFD002800F081805FE502F00701303100
:206180000BF8011DD10841EA4371D8080A46034652EA0301F1D170E7DDE900230DF1360B2C
:2061A000F6E7484B1AF4804F0DF1360B464918BF1946DDE9002352EA03003FF45EAF02F034
:2061C0000F00085C4FEA131C0BF8010D100940EA037002466346EEE70DF1360B002350E7BE
:2061E0004FF00008CDF8008072E74FF00108374A009280E74FF00108354AF9E74946384644
:20620000FFF7E2FC002886D017E510222C49984700287FF412ADAAF1100A8AE7D4F800B0AE
:206220000434BBF1000F2CD0D84698F8003008F1010223BBA8EB0B08002E02DBB04528BF2A
:20624000B046C1458CBFA9EB08094FF000091AF0010606D149463846FFF7B6FC00287FF4D2
:20626000ECAC3B68424659467868984700287FF4E4AC4544002E7FF478AF4D44C5E4904671
:20628000D3E7DFF850B04FF00608D5E700F00F0C12F80CC04FEA111E03F801CD4FEA101CED
:2062A0004CEA017C6046714678E5236804341D60ABE400BF8CB620008FB6200094B62000B2
:2062C0005AB620006AB620007BB6200092B62000E3B5200096B620000FB407B504AA52F8FA
:2062E000041B04480192FFF789FC03B05DF804EB04B070476845002008B5024B5B6A984748
:20630000012008BD1CB3200013B50A4B01A918209B6A984701280AD00198074B8028A8BFC8
:2063200080201B6804469847201A02B010BD0020FBE700BF1CB32000E4B3200038B54FF6BF
:20634000FF70FFF74DFB822100221A48FEF7BAFB00F076FE00F08CFE002000F0E5FDFF22CE
:206360000024154B154D1A70154B1C601C71154B1C60FCF711F9144B144918602346144C6E
:2063800030F8132025F81320D20302F5F42202F5907292FBF4F241F8232001330C2BEFD15D
:2063A0000C490D4804F0E6FA4FF400620B4B1A6038BD00BF70450020B46100209C6100200F
:2063C000F461002000570020344E0020B861002040420F0094B420000E5F00202C4E0020D6
:2063E00040F2573273B503880446934266D0B3F5567F05D2002B48D000230320238062E018
:2064000040F25E32934203D040F286329342F3D1314804F028F9002854D0304B1B68FBB10B
:206420002F4B1B68002B54D02E4804F0F1FD0546B0B98DF806000DF107010DF1060001F07E
:20644000A7FF00280CDD2B462A460121254800F099FD28B19DF8073003749DF80630C37372
:206460001F4E3568002D34D0FEF7F8FD3368A5EB95059B08B0FBF3F101FB13012944164825
:2064800004F0D6F840F2863313E00C21124804F0CFF8124B1B6873B1134B1B68002BBFD17A
:2064A000FEF7DCFDC0F30A010B4804F0C1F840F25E332380ACE740F257332380064804F0B6
:2064C000D2F810B9002002B070BD034804F0B9F8DFE74FF40061D2E7584D0020384E0020AC
:2064E0002C4E0020A4B420003C4E00202DE9F041054610200E46FFF73BF8214B04461B6868
:206500003BB931462846BDE8F0410123042204F06FBA1C4904F031FA80BB1B4B07201A7887
:20652000013212F0FF0208BF01221A701978FFF705F801210820FFF701F801210E20FEF7AF
:20654000FDFF12490F20FFF707F80620FEF7FEFF0F4BC7B2002F5B6808BF08279847B0F16D
:206560000008CEDB33462A463946204600F00AFD0028C6D080F80F80BDE8F081054CDCE7B6
:20658000384E002094B4200083600020E8640020E4B320009CB420007FB5FBF7FDFF00280D
:2065A0003FD0214C02A9A66A1820B047002838D169460420B047002833D10099E56A21F055
:2065C000030141F0040100910420A84748BB01A90520B04728BB0199052021F001010191CD
:2065E000A847F0B90F210120A847D0B9236B042203A90C209847A0B9FFF7A0FE00F0B0FD45
:2066000000F064FF0421094804F073F80821084804F06FF8FEF722FD0122064B1870064B1D
:206620001A6004B070BD00BF1CB32000386200203B62002083600020404E00200D4B07B515
:206640009B689847002812DB0720FEF77FFF4FF6FF73984204D0FEF7E7FF40B9FFF708F87A
:20666000054B9B68019303B05DF804EB184703B05DF804FBE4B320000CB4200037B50D4BFB
:206680001B68A3B100F03CFC054680B10024FEF70BFF02A8012100F8014DFEF715FF291DFB
:2066A0001020FEF759FF21460348FFF71FFF03B030BD00BF384E0020C969200038B50C4BFC
:2066C0001C68012C11D10B4B1D6875B929460A481C60FEF701FA29460848FEF7FDF92946D8
:2066E0000748FEF7F9F9204638BD0024FBE700BF404E0020484E002070450020884500201E
:206700007C4500202DE9F0410F4B1D68D5B90F4B1B68BBB10E4F3968A1B10A26B1FBF6F485
:206720000C1BFEF79BFC3A682B46B2FBF6F2B0FBF2F101FB1201074A21440748BDE8F04186
:20674000FEF754B8BDE8F0813C4E0020384E0020304E00207D662000F84D0020034B186006
:2067600010B90348FEF74CB8FFF7CCBF304E0020F84D0020054B1B683BB9054A126822B125
:20678000044A19460448FEF731B870473C4E0020384E00207D662000F84D0020044B1A68E2
:2067A000012A04D1002203481A60FEF7ADB97047384E00207C4500202DE9F04F0388B7B012
:2067C0000646DBB140F29232934240F0E780822917D1754F754D384603F0B8FF0FFA80F8BD
:2067E000B8F1FF3F0FD1724D724F284603F0AEFF00B2431C40F0BE80FDF7AEFC40F2923330
:2068000033800120CDE0902404FB085402AAD4F888102046FFF742F910F0FF0F3FD09DF88F
:2068200020309DF818A0022B0ABFBAFA8AFB4FF0000B4FEA5B1BBAF1010F12D14FF090091D
:2068400009FB08592046B9F88810FEF73DFEB9F88C100420FEF772FE99F88E105046FEF764
:206860006DFE9DF81830032B14D14FF0900909FB08592046B9F88810FEF726FEB9F88C106B
:206880000420FEF75BFE99F88E100120FEF756FEFDF71CFBBAF1010F05D1FFF7CFFE384610
:2068A00003F046FF97E7BBF1000FF8D090210023012201FB0851CDE90032204622AB12AA7C
:2068C000D1F8881004F084FC0028E8D000F018FB0446002840D114A9374804F04BF89DF875
:2068E0009820364B1A70002CD9D0211D14A804F044F80028D3D0902303FB0858249BD8F86B
:2069000080209A4201D0FFF749FF9DF898301F2B01D9FFF743FF9DF8D030002BBFD0284C70
:20692000BDF8D23022889A421DD0BDF8D220042AB5D835A9234803F029FC4FF0FF33BDF844
:20694000D220B3FBF2F353435B42B3FBF2F102FB113322806380A2E7011D174804F00DF829
:206960000028B8D0C1E735A9164803F0DDFB0028DBD194E757F820402068FEF703FCD4E981
:206980000101237BA27B04F033F8204600F048FB00F06EFB284603F0CBFE26E7002303804C
:2069A000032037B0BDE8F08F38620020406200203B620020186200200E5F00208260002047
:2069C00004620020EC61002038B50C4615461020FEF7CEFD2A462146FEF7ECFD022C1DD169
:2069E0001020FEF7C5FD044600F08AFA80B91149114803F0C2FFA8B90F4800F095FA0F4BC1
:206A00000F4A1B7801331370BDE83840FFF7B2BE2146043003F0B1FF0028E8D1BDE8384014
:206A2000FFF770BE074B1B68002BF7D1FFF7B6FEF4E700BF94B420000E5F0020826000202F
:206A4000B4610020E86100202DE9F04F0388ADB007463BB1B3F5487F00F0A9800023032054
:206A60003B80AAE0AD4A0121AD481371136003F0DFFDFBF78BFEAB4B1860DFF8F482C146C0
:206A80003FE0FBF783FEDFF8ECB282469BF80030A44EA54C1BB13368C31A802B13D9A34BB8
:206AA0000693FEF7DBFA2CAB00F00300184410F8982CE36A1146012003929847039AC6F8ED
:206AC00000A08BF80020236A9847E669B047002876D1A369984770B1FBF786FE6FF4A37A50
:206AE0000590B04700286BD1FBF77EFE059BAAEB0303C342F5D4D9F80030002B4DD0636A19
:206B00009847D8F80030002BA8D1894B1D68002DB7D0A3E70DF1600C9C44BCF812C0A5E006
:206B2000BDF8AA20042AE6D82BA9824803F02EFB4FF0FF33BDF8AA207F49B3FBF2F353434F
:206B40005B42B3FBF2F002FB10330A804B80ADE000F0CEFB9DF88E60042ECCD8BDF88C1083
:206B60009DF88B0000F034FB06230DF1960203FB0626039024AD0635AE4200F09C8035F825
:206B8000043C15F8021C019335F8063C0122009303986A4B00F0BCFBEDE7654B1B68002BA8
:206BA000AFD15F4803F04DFD4FF448733B805C4803F059FD00287FF460AF2DB0BDE8F08F20
:206BC0005F4E23698021304698470028C6F8880091DD236B042205A90C209847FBF704FE49
:206BE000DDF814B0BBEB00034FF6FF7048BF5B4283428CBF0020012000283FF47CAF002301
:206C000001930DF11303009308AA18ABD6F888104B4804F0DDFA00283FF46DAF3F4B1AAA3B
:206C200092E8030083E803009DF8703045495A1C0A709DF83120012A3FF45DAF48F2A51275
:206C4000BDF83E1091427FF456AFFF2B3FF453AF3D4B9DF871001E683C4ADFF81CA13C49D4
:206C60006B0000287FF456AF36F815C022F815C0D35ADB0303F5F42303F5907393FBF1F390
:206C80004AF8253001350C2DEAD19DF8A850002D7FF446AF254B2CA941F8943D042225482F
:206CA00003F074FA0422244B1A805D809DF88A30002B7FF44DAF234B1B781F2B3FF61BAF34
:206CC0000AA800F0DBF800283FF415AF0AA800F02BF9BDF83E00FEF783FEDAF808000F49BF
:206CE000ABEB000001F084FA01239DF83120C9F80030184B1A600023174A1360174A1360EC
:206D0000174A1360174A1360174A1360FFF7FAFC164A136801331360EDE600BFF461002082
:206D2000184E0020544D00201CB320000F191A143C4E0020EC610020046200209CB42000BA
:206D4000684D0020B4610020344E00209C61002040420F00444E002000620020FC61002028
:206D6000E861002008620020F0610020284E0020384E002081600020B861002040F237329E
:206D80002DE9F3410388044693423AD0B3F5507F06D0002B3CD1214EDFF89C80204F21E09E
:206DA0001E4B1B6833BBFFF7C9FAF4E7D8F8003013B348F2A510FEF713FE042238680DEBEC
:206DC00002010190174803F0E1F90422164B1A805D8001233360154B1D70FBF705FD144900
:206DE00001F006FA3568002DE0D001F0CBF94FF45073238001200EE00E4A138040F2373334
:206E000023800C48FFF720FE0128C4D8002002E000230380032002B0BDE8F081384E002069
:206E20009FB62000EC61002004620020B4610020F4610020165F00203C4E0020014803F0C5
:206E40009FBC00BF4C4E002038B5054600F028FE10B10024204638BD074803F091FC0446B7
:206E60000028F6D02946201D03F087FD0028F1D1204603F0AFFCF2E74C4E002038B5054648
:206E8000FFF7E2FF044670BB00F010FE40B3184803F0B3FC044608B33C22002103F04EFAF4
:206EA000082104F1340003F024FC2946201D03F061FD1049284603F060FDB0B90E4928462B
:206EC00003F05BFD003018BF012001232073E38121460A4803F071FC0023A36300F008FEEC
:206EE0002846FDF77BF8204638BD0120EDE700BF94450020A4B420009CB420004C4E002013
:206F000008B500F0CDFD08B1002008BD054803F037FC0028F8D0437B002BF6D103F05AFC00
:206F2000F7E700BF4C4E002038B5044600F0B8FD08B1002038BD124B1B68002BF9D1FFF785
:206F4000DFFF0546A4B12046FFF798FF04460028EFD085420AD001234FF4C0606373FFF79B
:206F6000FDFB55B921462846FDF794F80120E1E70028FBD02046FFF7F1FB00236B73F1E7B9
:206F80003C4E00202DE9F74F064689469346019300F086FD804628B14FF0000A504603B0BF
:206FA000BDE8F08F3046FFF769FF04460028F3D000F13407384603F0B0FB05B26B1CEBD063
:206FC000164803F01AFC82460028E5D003F0EEFAFEF7A0F8CAF80000B8B10322019B04EB62
:206FE0008505CAF804B0CAF808308AF80E208AF80C808AF80D903846C5F814A003F07FFB5E
:2070000021463046FDF716F8C8E701905146034803F007FC019A9246C0E700BFA04500209B
:2070200010B5044640B10068FEF796F82146BDE81040024803F0F5BB10BD00BFA04500208B
:2070400070B500F02DFD28B9084803F099FB0125044604B970BD204603F0BCFB064620461D
:2070600004F00BF8E5813446F3E700BF4C4E0020F8B500F015FD30B9124803F081FB04463B
:20708000104D114E04B9F8BD204603F0A3FBA3890746ABB9637C9BB9204603F0DEFF78B15C
:2070A00000F004FD60B12146284603F073FB00F01FFD204603F0E1FF2146304603F0B1FBD7
:2070C0003C46DFE74C4E00209445002070B505460E4600F0E5FC08B1002070BD0B4803F0D4
:2070E0004FFB04460028F7D0237B53B9A37C43B93146204603F0DAFF18B1002DEDD02C6060
:20710000EBE7204603F066FBEBE700BF4C4E002070B5054600F0C4FC48B90F49284603F0BE
:207120002CFC06460D4803F02BFB044600B970BDE37B2BB1637C3BB916B1E37B013BE37379
:20714000204603F047FBF0E7211D284603F015FC0028F2D1F4E700BF9CB420004C4E00205E
:2071600008B50A4803F009FB094803F036FB094803F033FB0848FFF781FE084B1860084842
:20718000FFF77CFE074B186008BD00BF4C4E002094450020A0450020A4B42000106200206F
:2071A0009CB420000C62002010B5044600F078FC08B1002010BD054803F0E2FA0028F8D0AC
:2071C0008388A342F6D003F005FBF7E79C560020F8B507460D4611B900242046F8BDFFF7CA
:2071E000E3FF06460028F7D100F060FC0028F3D00E4803F002FB0446A8B14FF0FF33B3FB32
:20720000F5F36B435B42B3FBF5F105FB11338780C58003810C30C4E9036003F0AEFA214645
:20722000034803F0CAFA00F063FCD6E7B84500209C56002073B50C46054610B9002002B0B1
:2072400070BD0029FAD0CA8983889A42F6D100F02DFC0028F2D0A11D6846267D03F08AFB83
:20726000104B21461A682869944204BF00221A6003F090FA21460C4803F0D3FA00F038FCE8
:20728000F2070CD56846FFF7F9FD40B1437C013B437473075EBF837C03F1FF338374012003
:2072A000CDE700BF00570020AC45002010B5044620B9002010BD2046FFF7BCFF206903F06B
:2072C0005FFA01460028F6D100F0F0FB0028F0D02146054803F0A5FA0448214603F05AFA1C
:2072E00000F006FC0120E5E7B84500209C56002010B5064C204603F043FA08B9012003E00E
:20730000FFF7D4FF0028F5D110BD00BF9C5600202DE9F0478A4691461F46BDF82050BDF8E5
:207320002480064618B900242046BDE8F087C388AB42F8D9B8F10F0FF5D8294603F03BFFAD
:2073400000F0B4FB0028EED01B4803F056FA044610B900F0CDFBE7E70146306903F02DFA6F
:20736000164A84F814A0136884F81590A380591CB3881160E381002311492582A51D9F4272
:2073800018BF3946A3612846A4F8128003F0F2FA00F0AEFB237DDA07C6D52846FFF76EFD94
:2073A0000028C1D0437C01334374237D5B075EBF837C01338374B7E7AC45002058500020AA
:2073C00094B420002DE9F84F07468846914600F067FB0446002873D13B4803F0D1F9254643
:2073E00082462646BAF1000F0CD1B8F1000F01D0A8F80060B9F1000F01D0C9F80040284640
:20740000BDE8F88FBAF8082097F804B0BAF8063002FB0BFB9BFBF3F2396803FB12B2B1FBAE
:20742000F3FB03FB1B1B5A4492FBF3FB03FB1B2BDAF810001FFA8BFB03F0A2F920B950464F
:2074400003F0C8F98246CDE7038A5B4597BFBAF80620A3EB0B03A2EB0B029B189BB23DB37B
:207460009E4229D818D12A7D037D82EA0301C90715D4B0F80EC0E9898C4512D364B913F034
:20748000020F234614BF0446002412F0020F18BF2C46002B18BF1D4603F09CF9CEE7D90753
:2074A000ECD50CB10546F7E78542F5D00346ECE72C461E460546EFE705461E460024EBE7E1
:2074C0000024254696E700BF9C56002008B500F0EDFA58B1064803F080F9064803F07DF9C1
:2074E000054803F04AF900F003FB012008BD00BFAC450020B84500209C5600202DE9F743E6
:2075000000F0CEFA002851D12A4803F039F92A4D06462B68002B07DB284A29492948FEF725
:20752000DBFE2948FEF7D8FE244FDFF89480DFF894906EB92B68002B38DB204A20492148A9
:20754000FEF7CAFE214803B0BDE8F043FEF7C4BE306903F015F92B680446002B09DB3A46FD
:2075600041464846FEF7B8FEF288B1881848FEF7B3FE24B9304603F02DF90646D9E72B6887
:20758000002B0EDB3A4641464846FEF7A5FE607B238A627D217D0190608A00900D48FEF750
:2075A0009BFE204603F016F90446E2E703B0BDE8F08300BF9C56002064490020A8B62000D0
:2075C000B3B62000D6B42000B7B6200041B72000D9B62000F7B6200073B50D461446064636
:2075E000FBF702F9AA1EA84222442CBF00230123954294BF00210121994203D1904234BF73
:20760000002301232C443BB900930122074B21463046FDF725F938B1FBF7E6F8001B0028CC
:20762000FADB002002B070BD0120FBE73D7B200013B504460020237D0190DB0705D400205D
:20764000134B019A1A6002B010BD637D013B012B05D8104B21461868019003F027FD637D49
:20766000022BEDD00028EBD1A01DFFF7EDFB2146019003F01BFD0028E2D1074B019A1B6853
:207680009A42DCD1214601A8FFF720FDD8E700BF04570020106200200C62002040F22922A8
:2076A0002DE9F04FAD4DCBB02B88074693426BD1DFF8FC82AA4EFBF797F80446FAF748FF9F
:2076C000D8F80030B2681344E41AC442F3D4DFF8DC82DFF8A4B298F80000DBF80830984792
:2076E000A04A9F4E1368DFF8C89201331360D9F80020B368DFF884A213449B4A8AF8000099
:207700001360FAF719FFFAF70BFFFAF715FF98F8003004460393FAF703FF039BDFF854820F
:2077200018446043C003914B00F5F42000F5907090FBF3F0B36A984294BFC8F80000C8F875
:207740000030DBF8243098479AF80030002B40F08681874B1B78002B40F0BE80D8F80020E1
:20776000B468D9F800A01444D6F81090FAF7FCFE023C09EB0402121A51463846FFF72CFF31
:20778000D8B140F2492358E140F24922934240F0B080DFF81C82724E764FFBF725F8044664
:2077A000FAF7E2FE3A68B368D8F800101344326913440B44E31AC342EFD46F4EDFF8A08149
:2077C000336A9847DFF8ACA1DFF89C91B769B847A0B9FBF709F8DAF80040D8F810308346AF
:2077E0002344D8F81C401C44FAF7CAFED9F800301C44ABEB0404241A002CE7DBFAF7F4FFCE
:207800000446FAF7BDFEDFF85881041BB84730B1FAF7EAFFD8F82430E31AC342F6D4736A1C
:207820009847336980212AA89847011E534E40F31A81534C27681FB17B7B1F1C18BF0127BF
:20784000504B2AA81A780DF11703019316AB009306AB00F04BFD002800F00781002F39D068
:20786000BDF95820DFF84C81D303002AACBF03F5F423A3F5F4233D4A434FACBF03F590738E
:20788000A3F5907393FBF2F23968D8F800303748591A3E4BDFF820C19B899B08DB0303F56A
:2078A000F42303F5907393FBF0F0904280F2CD80CCF80000DCF8002089B2206800F07EFED0
:2078C00098E8030087E80300FAF760FF304B1860FEF718FF002333702E4B10211B681868F1
:2078E00002F0F1FF2C4B1A68244B197802F04AFE13E0002B2ED1294802F00FFF284B1860FA
:20790000013027D0DFF88C90D9F8003013B11868002853D10522194B1A701E4C1E4A21684B
:2079200017480B7B126801330B73144B00681B788B7303F003FC10F0FF0F08D1184B216819
:207940001A68184B154843F8221002F0D8FE1648FDF7DAF8002303202B8070E0265F0020A6
:20796000B861002000620020A057002040420F00486100209C5700201CB32000496100200F
:20798000045700204B610020685700209C6100201462002008570020005700203B6200205B
:2079A0001057002018620020704500204A6100200C570020F461002014570020FDF7FAFB9A
:2079C0002B4CD9F800302060186802F078FF294B294A1968294B0E7B10701E702368284E52
:2079E00093F802C0904686F800C0264E3668B1422646254C26D1D9F80020C1B2127C1846FD
:207A000000F072FD206023684BB3204B98F8001030685B68984710BB1D4B1E681D4B9C6894
:207A2000FAF796FDA21E121A31463846FFF7D4FD00283FF44CAE40F2292301202B804BB080
:207A4000BDE8F08F01232360DDE7134893FBF0F39342ACBFCCF80030CCF800202AE704227C
:207A60000E4B1A7038E77FF435AF022333E700BF74570020045700204A61002048610020B5
:207A80004B61002010620020C44500201CB320000C570020B8610020C0BDF0FF496100207E
:207AA000014B1868704700BF9857002070B50D4C23680BB1002070BD01220B4D0B4E2A6005
:207AC000316829B1FAF790FE336843B9FAF78CFE2368002BEED1012020602B60EBE7FBF73D
:207AE00007F8F1E79857002094570020905700200022014B1A6070479857002030B50D4DA1
:207B000004796A882B88544394FBF3F203FB12420468B4FBF3F003FB1040104490FBF3F2D6
:207B200003FB1202114491FBF3F203FB1211024B585C30BD04620020EC61002040F21B42DC
:207B40002DE9F04F994E87B033888046934275D004D853B10023032033805AE040F21F4271
:207B600093427ED0B3F58E6FF4D1914B1B68002BF0D0904C206808B38F4B1B68F3B90121E4
:207B80008E4A8F4D11608F4A1360FFF751FD286050B923681B7D9A0706D48B4B186818B1E2
:207BA0002060FFF745FD28602B68884A002B33D123681B7D13F002032ED11360844D854CB2
:207BC0002A6842B194E80300834B83E80300FAF7DDFD824B18602868814D002840F02D82F0
:207BE0007D4A23681268E96A9A1A4FF41943B3FBF1F164234B439A4240F21F82794B186083
:207C0000FEF7CCFD00226D4B01201A604FF48E63338007B0BDE8F08F1368734FABB10023B3
:207C20001360724B3978DB6A012098472B689BB100226F4B1A8040F21B4333804046FFF70A
:207C40002DFD0128BAD80020E3E723686148997CFFF754FF3870E4E7664A138040F21F4379
:207C6000338040F20637DFF88C915D4CB9F80050CA46BD4236D1604FFAF7B6FD0546FAF79F
:207C800073FC3B68E2681344ED1AC542F4D4574D2B6A9847AB6902939847EB6903930028A9
:207CA00040F05A829847002840F05682524F029B984710F0FF0F40F04F82FAF795FDE368AF
:207CC000A269834603EB0209FAF75AFC3B684B44ABEB030BABEB000BBBF1000FE7DB6B6AC7
:207CE0009847D6E040F292339D424ED1DFF83091424FFAF779FD0546FAF72AFCD9F8002017
:207D0000636913443A681344EB1AC342F1D43C4A364C1088A3689847636A9847394B18683E
:207D2000D0F8881003F08DFA284B18603648FFF78BF80446E8B1437BDBB1264A264B1568FC
:207D400019686D1A92E8030083E80300FAF71EFD224B2E4918602E4B20461A68194B52426F
:207D60001A600B6801330B60A9B200F027FCFEF7C9FC284802F0C3FC002C00F0F0801B4B3C
:207D800005A99B6A0A209847E9E05DB9214802F0C4FC214B00B21880431C43D11F4A136820
:207DA000013313600023AAF8003007E7225F0020384E002000570020945700209057002069
:207DC0000857002014570020F4560020F85600203C4E0020F461002068570020146200202D
:207DE000B8610020705700203E6200201CB32000265F0020245F00200C5700207C570020F6
:207E0000F0560020FC560020285F0020E86100201857002038620020205F002064570020B7
:207E200078570020A949A2680B6809681344A84A02911360A74AD4F80CB013609022A64B95
:207E400002FB0030A54B1860FAF78EFBABF10202121A02994046FFF7BFFB00283FF417AF55
:207E6000A9F80070EFE6FAF7BFFCA169E368DBF800200B44A16A0B441344C01A002803DA49
:207E8000029B98470028EED16B6A9847039B984730B9934B1A68002A84D000221A6081E783
:207EA000DFF838B22B69DBF80090802148469847AB6AC9F8880004A909209847DBF80030E6
:207EC000884903F1800203C982E80300049AD3F88810A3F88C20844A1846127883F88E20FB
:207EE000824AFDF7DBFD00284ADC0020804B18600293FAF721FBFAF713FBFAF71DFBDBF8BC
:207F000000208146D2F888B0FAF70AFB584409FB00F0C003774900F5F42000F5907090FBE6
:207F2000F1F0754AA16A029B884294BF106011601968934639B16D4A127C012A03D9032A3E
:207F40001CBF00221A601B6863B16C496C4802F014FD18B369496B4802F00FFD28B36A48EC
:207F6000FCF7D2FD9024694BB3F90000684B1A685F4B1968584B04FB003002F0F8FA88E7A6
:207F80005A48FDF733FD0028AFD05D4A5D495748FDF74AFD003018BF0120A7E75D49584851
:207FA00002F0EBFC0028D5D1D9E75B4A136801331360474B19683B68C91A584B19604B4B48
:207FC000DA7C002A3FF4B2AE4A4A002902FB01F2BEBF4FF40041A2F5804292FBF1F24FF0D8
:207FE0000009A6BF02F5804242F3CF3212B29B7E8021CDE900294A48424A00F027F9494B05
:20800000484518607FF792AE81B26B6844489847DBF8002064693D681444FAF799FAA21E33
:20802000121A29464046FFF7D7FA00283FF46FAE40F29233AAF8003005E6354F0023B94686
:20804000DFF8ECA0ADF81430386838B1037D03F00503052B02D10630FFF75AF8DAF800304D
:20806000002B69D0D9F80030002B65D001230022ADF814302C4B1A602C4A13680133136083
:20808000BDF814302268DFF8ACB0D218DBF800002260EA6A28BF217902FB030228BF0131FB
:2080A000104628BF2171029200F006FB0023029ACBF80030054B0244196818681044186057
:2080C0004046FFF789FA0028BED09BE50C5700201C5700207C57002040620020FC5600202E
:2080E00064570020F46100203E620020205700206057002040420F0078570020E864002016
:20810000185F0020285F002070450020205F00200057002094B42000FC61002018570020C2
:20812000C8600020F0560020F45600208C570020F8560020145700200D4A05A90D48FFF7DB
:2081400041F9C9F8000018B90123ADF8143097E70022094B1A6093E7FAF746FB8346FAF772
:208160000FFA064FABEB00003860DFF814B087E6F4560020F46100208C5700207C57002096
:208180000C57002073B5144E144D34462A460DF106013046FFF716F9114B186010B9012346
:2081A000ADF80630BDF8061033685B1828BF227923600C4B24BF01322271DA6A0A4B4A43E0
:2081C00019681868104418600848FFF705FA0028DCD002B070BD00BFF4610020F45600203C
:2081E00000570020B86100200C5700208057002038B50E4B0E4C186003C984E8030002F010
:2082000060F90546BFF35F8F94E80300094B83E80300FAF7BBFA084B1860BFF35F8F28465A
:2082200002F053F90022054B1A6038BD0C570020F46100206857002014620020005700203B
:20824000014B33F810007047305F00202DE9F0410E46A4B017469846054628B94FF0FF3469
:20826000204624B0BDE8F0811E4C1E220021204602F064F802230122A3836282A4F80E80B3
:208280004FBBE28201236A46A3820021164802F03BFD684602F0ECFD0446324600212846F4
:2082A00002F04CF85022002110A802F047F8BDF9A83010AAADF840302B9B311B28198DF8D7
:2082C000423002F0A1FB0028C8DB04442946684602F016FEC4E700233946E382684602F016
:2082E00049FBCFE7305F0020418220002DE9F3478146DDE90A76884692461D461BB9002098
:2083000002B0BDE8F0870029F9DB1A46FDF7C6FB0228F4DDC4B206B13470AB7E5345EED131
:208320002846FDF763FB0028E9D06A4600212846FDF77AFB0028E2D01349684602F01DFB06
:20834000A8B1DFB9AB7D5BB1A8EB04013A46C9B209EB0400FDF7B8F9431CD0D02044C4B2EF
:208360001EB13378FA78134433702046C8E70749684602F002FB0028E3D1C0E750220021FF
:20838000384601F0DBFFDDE7E864002094B42000F0B595B007460E46FDF786F8502200216C
:2083A000684601F0CBFFFDF713F8044602F0DBFA6A460146204602F059FB051E03DA4FF062
:2083C000FF3015B0F0BDFCF7F1FF284480B2FCF7E3FF02F0C8FA2C4401466A46204602F033
:2083E000A9FB051EEBDBFCF7E1FF284480B2FCF7D3FF02F0B8FA2C4401466A46204602F057
:20840000BBFB051EDBDBFCF7D1FF284480B2FCF7C3FF02F0A8FA2C4401466A46204602F064
:208420003EFB041ECBDBFCF7C1FF204480B2FCF7B3FFFCF7BBFFADF80400FCF7C9FF0446F2
:20844000FCF7C6FF0546FCF7B1FF29460246A01C01F012FFFCF7AAFF023080B2FCF79CFF73
:20846000FCF7B6FF044602F07EFA6A460146204602F0ECFA0028A2DB0220FCF7DDFFFCF7E2
:2084800091FF044602F06FFA6A460146204602F0D1FA002893DB00210E20FDF74FF801214B
:2084A0000920FDF74BF80D490F20FDF755F80C491020FDF751F80B4B5B6898470028FFF6BF
:2084C0007EAF17B1FCF778FF38701EB1FCF774FF02303070FCF7A6FF73E700BFE864002071
:2084E000A4B42000E4B3200030B5134604460D4695B0094902AA03C982E80300074AE91AA2
:208500001278E0188DF810206A4602F0AFFA013018BF012015B030BDF4610020B461002054
:20852000F8B515461C46A0FB0123CF1700FB07332968561843EBE1771E4A002330463946F2
:2085400001F01AFC1B4A1C4B02FB10622A60B4F900200244D003002AABBF00F5F420A0F537
:20856000F42000F59070A0F5907090FBF3F00028B8BF4FF4004103FB00F3B9BFA3F5804308
:2085800093FBF1F303F58043C3F3CF33B8BF9BB292B2D31A238080EAE073A3EBE073B3F518
:2085A000807F05DD0028D4BF6FF0FF004FF48070F8BD00BF0040420F40420F002DE9F843A7
:2085C000304B16461A68304C8242304D15D0186000232F4A13602F4A137023602B602E4B96
:2085E0001A68B242D4BF1A601E602C4B1A68B242ACBF1A601E60BDE8F8832A68284B1144B0
:20860000DA8A284B206893FBF2F3B1EB830F2960304435D3244B1F4FDA6ADFF898904A43A8
:208620002249D31780FB010101F0A6FB3B780BB989F800301E4A99F80010072B42F8210018
:20864000904613D801333B70002299F800303978013303F0070389F8003013468A420ADBFA
:2086600093FBF1F30A4A13600023B6E74FF4F050FEF774F8E8E758F8220001320344EDE78E
:208680002060ACE770570020CC570020A4570020D05700204D61002008620020F061002072
:2086A0009C61002040420F00B86100200040420FAC5700204C61002038B54FF4804200233D
:2086C0001049E1FB0023D50B45EA43450E4B1C686CB10E4B1B6893B10D4B0E4A214628460C
:2086E000FFF71EFF04460C4A1368034413600B4B0B4A0C492846FFF713FF204438BD1C4661
:20870000F5E700BF40420F00D057002070570020505F0020D4570020CC5700204E5F0020D5
:20872000A8570020002FFCFF024B1B680BB15B6818477047D857002070B514460D4D0E4E07
:2087400028603180FCF7B0FE31882868FCF7BCFE74B121461020FCF7FFFE08490F20FCF72A
:20876000FBFE0021064B08469B689847012070BD0449EFE78464002080640020E864002075
:20878000F0B3200094B42000014B1860704700BFD85700200022014B1A607047D857002037
:2087A0002DE9F3410124054635480E46FFF7ECFF344B6FF017011C60334B0620DB6A984713
:2087C000324B1B6998472B889BB1B3F5927F50D1882E52D12E4801F046FFF0B12D48FDF751
:2087E0007BFD2D480021FCF777F9002302202B8010E02A48FDF770FD4FF43E51244801F026
:2088000017FF4FF48071264801F012FF4FF4927301202B8002B0BDE8F081224801F0B0FFB8
:20882000214C224E224FDFF88C80206023681BB91B4801F00FFFE9E7737831788DF80530A8
:20884000002338468DF806308DF80410FDF744FD22680321043201A8FFF76EFF23684046ED
:20886000DA7A997AFDF738FD206801F0B3FF2060DCE7002303202B80CCE72046CAE700BF80
:20888000C84500203C4E00201CB32000F0B32000EC5700201BB82000F84500200BB82000B9
:2088A0000C5800202C58002080590020E948002038B820004AB8200084B02DE9F74F0CACCC
:2088C000A14600264FF07E5884E80F009DF830A09DF832504FEA8A0BB54244DC6FF0030B2D
:2088E0000BFB05F90BFB0AFB0AFB05F44FEA850805FB0BFB002700254FF07E560CAB03EB9B
:208900008404DFF8D4A00C349DF83130AB425CDD04EB08033A463AE0C39B09EB840053F873
